:020000040000FA
:1000000060F1FF1F49010000550100005701000089
:1000100000000000000000000000000000000000E0
:100020000000000000000000000000005901000076
:1000300000000000000000005B0100005D01000006
:100040005F0100005F0100005F0100005F01000030
:100050005F0100005F0100005F0100005F01000020
:100060005F0100005F0100005F0100005F01000010
:100070005F0100005F0100005F0100005F01000000
:100080005F0100005F0100005F0100005F010000F0
:100090005F0100005F0100005F0100005F010000E0
:1000A0005F0100005F0100005F0100005F010000D0
:1000B0005F0100005F010000F50100005F0100002A
:1000C00000F002F800F030F80CA030C8083824180E
:1000D0002D18A246671EAB4654465D46AC4201D180
:1000E00000F022F87E460F3E0FCCB6460126334282
:1000F00000D0FB1AA246AB46334318476C020000FF
:100100007C0200000023002400250026103A01D3C1
:1001100078C1FBD8520700D330C100D50B607047BF
:100120001FB51FBD10B510BD00F031F81146FFF727
:10013000F7FF00F0FBF800F049F803B4FFF7F2FF17
:1001400003BC00F04FF8000072B60948804762B661
:1001500008480047FEE7FEE7FEE7FEE7FEE7064841
:100160000047000005480649044A064B7047000056
:100170003D020000C10000005F01000060F0FF1FB1
:1001800060F1FF1F60F0FF1F7047704770477546B2
:1001900000F024F8AE46050069465346C008C0008A
:1001A000854618B020B5FFF7DDFF60BC0027490881
:1001B000B6460026C0C5C0C5C0C5C0C5C0C5C0C5FF
:1001C000C0C5C0C5403D49008D46704710B50446C6
:1001D000C046C0462046FFF7B0FF10BD004870473C
:1001E00000F0FF1F01491820ABBEFEE72600020009
:1001F0007047000010B5002416E00E480068012189
:10020000C90488430B490860FF20F53000F01CF852
:10021000084800680121C904084306490860FF2016
:10022000F53000F011F8641C032CE6DB06200249CF
:10023000086210BD40F00F4080900440002001494A
:100240000860704700810440002106E0002200E0C1
:10025000521C034B9A42FBDB491C8142F6DB704780
:10026000581B00001E48806B0121490208431C49AD
:1002700088631C484068FF210431084319494860DD
:100280001948406902218843174948611548406868
:100290000F21090488431349486008464068052136
:1002A000490408430F49486008468068FF2104312B
:1002B00008430C4988600C484069042188430A4976
:1002C0004861084880680F2109048843054988600F
:1002D0000846806805214904084302498860704740
:1002E000008004400090044000F00F400C48806BF8
:1002F0000121890208430A49886388150949C860B1
:100300008860094840690321890408430649486117
:1003100008460068032189040843034908607047C0
:100320000080044040A0044040F00F4072B6FFF748
:10033000DDFFFFF797FF0A4800680121890708439E
:100340000749086062B60AE00648C06801218904CE
:1003500008430449C860FF20F530FFF775FFF3E755
:1003600000E100E040F00F401004000000F0FF1F2B
:100370006001000004010000000000000000000017
:10038000000000000000000000000000000000006D
:10039000000000000000000000000000000000005D
:1003A000000000000000000000000000000000004D
:1003B000000000000000000000000000000000003D
:1003C000000000000000000000000000000000002D
:1003D000000000000000000000000000000000001D
:1003E000000000000000000000000000000000000D
:1003F00000000000000000000000000000000000FD
:10040000FFFFFFFFFFFFFFFFFFFFFFFFFEFFFFFFFD
:0400000500000149AD
:00000001FF
