:020000040000FA
:1000000060F1FF1F49010000550100005701000089
:1000100000000000000000000000000000000000E0
:100020000000000000000000000000005901000076
:1000300000000000000000005B0100005D01000006
:100040005F0100005F0100005F0100005F01000030
:100050005F0100005F0100005F0100005F01000020
:100060005F0100005F0100005F0100005F01000010
:100070005F0100005F0100005F0100005F01000000
:100080005F0100005F0100005F0100005F010000F0
:100090005F0100005F0100005F0100005F010000E0
:1000A0005F0100005F0100005F0100005F010000D0
:1000B0005F0100005F0100005F0100005F010000C0
:1000C00000F002F800F030F80CA030C8083824180E
:1000D0002D18A246671EAB4654465D46AC4201D180
:1000E00000F022F87E460F3E0FCCB6460126334282
:1000F00000D0FB1AA246AB4633431847E801000084
:10010000F80100000023002400250026103A01D346
:1001100078C1FBD8520700D330C100D50B607047BF
:100120001FB51FBD10B510BD00F031F81146FFF727
:10013000F7FF00F0ABF800F049F803B4FFF7F2FF67
:1001400003BC00F04FF8000072B60948804762B661
:1001500008480047FEE7FEE7FEE7FEE7FEE7064841
:100160000047000005480649044A064B7047000056
:10017000F5010000C10000005F01000060F0FF1FFA
:1001800060F1FF1F60F0FF1F7047704770477546B2
:1001900000F024F8AE46050069465346C008C0008A
:1001A000854618B020B5FFF7DDFF60BC0027490881
:1001B000B6460026C0C5C0C5C0C5C0C5C0C5C0C5FF
:1001C000C0C5C0C5403D49008D46704710B50446C6
:1001D000C046C0462046FFF7B0FF10BD004870473C
:1001E00000F0FF1F01491820ABBEFEE72600020009
:1001F00070470000002001490860704700810440FA
:10020000002107E0002200E0521C7D239B019A425E
:10021000FADB491C8142F5DB704700000A48806B1D
:100220000121C902084308498863FF2004300749B7
:10023000086048608860C860086148618861C8617A
:100240000F200349486170470080044000B004401B
:10025000C0F00F4010B50C4840690F2108430A490F
:1002600048610F2088600220FFF7CAFF0648006936
:10027000F02108400446002003494861F02C00D1D9
:1002800010BD0120FCE7000080F00F40FFF7C6FF23
:100290001148806B0121090308430F4988638815C1
:1002A0000E4948600E484069022108430C494861E4
:1002B00010E0FFF7CFFF002806D009488068022130
:1002C00008430749886005E0054840680221084363
:1002D00003494860EDE700000080044000C004408E
:1002E000C0F00F401004000000F0FF1F600100008C
:1002F00004010000000000000000000000000000F9
:1003000000000000000000000000000000000000ED
:1003100000000000000000000000000000000000DD
:1003200000000000000000000000000000000000CD
:1003300000000000000000000000000000000000BD
:1003400000000000000000000000000000000000AD
:10035000000000000000000000000000000000009D
:10036000000000000000000000000000000000008D
:10037000000000000000000000000000000000007D
:10038000000000000000000000000000000000006D
:10039000000000000000000000000000000000005D
:1003A000000000000000000000000000000000004D
:1003B000000000000000000000000000000000003D
:1003C000000000000000000000000000000000002D
:1003D000000000000000000000000000000000001D
:1003E000000000000000000000000000000000000D
:1003F00000000000000000000000000000000000FD
:10040000FFFFFFFFFFFFFFFFFFFFFFFFFEFFFFFFFD
:0400000500000149AD
:00000001FF
