:020000040000FA
:1000000060F1FF1F49010000550100005701000089
:1000100000000000000000000000000000000000E0
:100020000000000000000000000000005901000076
:1000300000000000000000005B0100005D01000006
:100040005F0100005F0100005F0100005F01000030
:100050005F0100005F0100005F0100005F01000020
:100060005F0100005F0100005F0100005F01000010
:100070005F0100005F0100005F0100005F01000000
:100080005F0100005F0100005F0100005F010000F0
:100090005F0100005F0100005F0100005F010000E0
:1000A0005F0100005F0100005F0100005F010000D0
:1000B0005F0100005F0100005F0100005F010000C0
:1000C00000F002F800F030F80CA030C8083824180E
:1000D0002D18A246671EAB4654465D46AC4201D180
:1000E00000F022F87E460F3E0FCCB6460126334282
:1000F00000D0FB1AA246AB4633431847E00200008B
:10010000F00200000023002400250026103A01D34D
:1001100078C1FBD8520700D330C100D50B607047BF
:100120001FB51FBD10B510BD00F031F81146FFF727
:10013000F7FF00F00FFA00F049F803B4FFF7F2FF01
:1001400003BC00F04FF8000072B60948804762B661
:1001500008480047FEE7FEE7FEE7FEE7FEE7064841
:100160000047000005480649044A064B7047000056
:10017000F5020000C10000005F01000060F0FF1FF9
:1001800060F1FF1F60F0FF1F7047704770477546B2
:1001900000F024F8AE46050069465346C008C0008A
:1001A000854618B020B5FFF7DDFF60BC0027490881
:1001B000B6460026C0C5C0C5C0C5C0C5C0C5C0C5FF
:1001C000C0C5C0C5403D49008D46704710B50446C6
:1001D000C046C0462046FFF7B0FF10BD004870473C
:1001E00000F0FF1F01491820ABBEFEE72600020009
:1001F000704710B50446F02121400846002100F068
:1002000057F82107080E002100F052F8042C03DAF9
:10021000042000F085F802E0012000F081F810BD14
:1002200010B50446F02121400846012100F040F8B5
:100230002107080E012100F03BF8012000F070F8C2
:1002400010BD000000B5FF2001301749086088602C
:10025000C860086148618861C86114484069FD212F
:100260000843124948611E2000F05AF80A2000F0A5
:1002700057F8012000F054F8012000F051F8002157
:10028000202000F015F8012000F04AF82820FFF7A0
:10029000B0FF0620FFF7ADFF0120FFF7AAFF0F20F8
:1002A000FFF7A7FF00BD000000C00440C0F00F40F2
:1002B00030B504460D46F02004402D072D0F204692
:1002C00028430B4908602046284308210843084971
:1002D0000860002000F024F805480460002004496C
:1002E000086008464068022108430149486030BD63
:1002F000C0F00F40002001490860704700810440B1
:100300000648806B012109030843044988630846B5
:10031000806B0915084301498863704700800440D9
:10032000002106E0002200E0521C034B9A42FBDB56
:10033000491C8142F6DB7047581B0000002107E092
:10034000002200E0521C7D239B019A42FADB491CEB
:100350008142F5DB704700000A48806B0121C90229
:10036000084308498863FF20043007490860486053
:100370008860C860086148618861C8610F200349CE
:10038000486170470080044000B00440C0F00F4056
:10039000FF2003300E4948600E498860C860032082
:1003A00080040D49486102200B49803148610A48A8
:1003B00040680321890408430749486006488030A3
:1003C00040680221084304498031486070470000BA
:1003D00000C0044040A0044040F00F4080070000EF
:1003E00000F0FF1F60010000040100000000000099
:1003F00000000000000000000000000000000000FD
:10040000FFFFFFFFFFFFFFFFFFFFFFFFFEFFFFFFFD
:1004100038B54EA0006800904D4840690F21084350
:100420004B4948610F2088600220FFF787FF48484A
:100430000069F02108400546002045494861F02D3B
:1004400000D138BD002418E0002041494861084629
:1004500040696946095D08433D4948616846005D59
:1004600088600220FFF76AFF39480069F0210840E0
:100470000546F02D00D002E0641C042CE4DB00BF34
:100480000020334948613248403040680221084327
:100490002F4940314860042C01D10020D1E7702D54
:1004A00012D1002C06D0012C06D0022C06D0032C31
:1004B00008D105E04120C4E74220C2E74320C0E75D
:1004C0004420BEE70020BCE7B02D12D1002C06D09E
:1004D000012C06D0022C06D0032C08D105E03320D5
:1004E000AFE73620ADE73920ABE72320A9E70020AE
:1004F000A7E7D02D12D1002C06D0012C06D0022C5B
:1005000006D0032C08D105E032209AE7352098E781
:10051000382096E7302094E7002092E7E02D12D1B2
:10052000002C06D0012C06D0022C06D0032C08D1BA
:1005300005E0312085E7342083E7372081E72A2052
:100540007FE700207DE700207BE700000102040830
:1005500080F00F400024FFF7D3FEFFF719FFFFF7ED
:10056000FBFEFFF76FFE174840680121890408432E
:1005700014494860134880304068022108431149FB
:10058000803148600F4840680121C90408430D4983
:10059000486016E008E000F09CF8FFF739FF0446D9
:1005A000FF20F530FFF7BCFE002CF4D009D001206D
:1005B000FFF71FFE204600F01DF80120FFF719FE8F
:1005C0000024E7E740F00F4000B50120FFF711FEDF
:1005D000FF20F530FFF7A4FE8020FFF70AFE4E2033
:1005E000FFF71EFE6520FFF71BFE6C20FFF718FECD
:1005F00000BD000010B50446312C0FD1204600F09C
:100600003DF8012080041C49C8607D20C000FFF730
:1006100087FE012080041849C86029E0322C0FD1E0
:10062000204600F02BF8022013498031C8607D205D
:10063000C000FFF775FE02200F498031C86017E047
:10064000332C0FD1204600F019F80120C0040A49CC
:10065000C8607D20C000FFF763FE0120C00406498A
:10066000C86005E0FFF7B0FF7D20C000FFF758FE2F
:100670000120FFF7BEFD10BD40F00F4010B504464D
:100680000120FFF7B6FDFF20F530FFF749FE80207F
:10069000FFF7AFFD5320FFF7C3FD6520FFF7C0FD57
:1006A0006C20FFF7BDFD6520FFF7BAFD6320FFF763
:1006B000B7FD7420FFF7B4FD6520FFF7B1FD64209E
:1006C000FFF7AEFD3A20FFF7ABFD2046FFF7A8FD90
:1006D00010BD00B50120FFF78CFDFF20F530FFF7BE
:1006E0001FFE8020FFF785FD5020FFF799FD722047
:1006F000FFF796FD6520FFF793FD7320FFF790FD50
:100700007320FFF78DFD2020FFF78AFD4220FFF7C1
:1007100087FD7520FFF784FD7420FFF781FD7420AD
:10072000FFF77EFD6F20FFF77BFD6E20FFF778FD62
:100730003A20FFF775FDC020FFF75BFD5220FFF761
:100740006FFD3A20FFF76CFD3120FFF769FD202097
:10075000FFF766FD4220FFF763FD3A20FFF760FDDB
:100760003220FFF75DFD2020FFF75AFD4720FFF7FD
:1007700057FD3A20FFF754FD3320FFF751FD00BD30
:0400000500000149AD
:00000001FF
