:020000040000FA
:1000000060F1FF1F49010000550100005701000089
:1000100000000000000000000000000000000000E0
:100020000000000000000000000000005901000076
:1000300000000000000000005B0100005D01000006
:100040005F0100005F0100005F0100005F01000030
:100050005F0100005F0100005F0100005F01000020
:100060005F0100005F0100005F0100005F01000010
:100070005F0100005F0100005F0100005F01000000
:100080005F0100005F0100005F0100005F010000F0
:100090005F0100005F0100005F0100005F010000E0
:1000A0005F0100005F0100005F0100005F010000D0
:1000B0005F0100005F0100005F0100005F010000C0
:1000C00000F002F800F030F80CA030C8083824180E
:1000D0002D18A246671EAB4654465D46AC4201D180
:1000E00000F022F87E460F3E0FCCB6460126334282
:1000F00000D0FB1AA246AB463343184778050000F0
:10010000880500000023002400250026103A01D3B2
:1001100078C1FBD8520700D330C100D50B607047BF
:100120001FB51FBD10B510BD00F053F81146FFF705
:10013000F7FF00F024FA00F06BF803B4FFF7F2FFCA
:1001400003BC00F071F8000072B60948804762B63F
:1001500008480047FEE7FEE7FEE7FEE7FEE7064841
:100160000047000005480649044A064B7047000056
:1001700039030000C10000005F01000060F0FF1FB4
:1001800060F1FF1F60F0FF1F30B5441C03E00178F1
:10019000401C00290DD08107F9D10B4BDD0104C8AB
:1001A000D11A91432940FAD0001B0A0603D0C01E81
:1001B00030BD001B30BD0A0401D0801E30BD0902D5
:1001C000FCD0401E30BD00000101010170477047A6
:1001D0007047754600F024F8AE4605006946534660
:1001E000C008C000854618B020B5FFF7BBFF60BC53
:1001F00000274908B6460026C0C5C0C5C0C5C0C551
:10020000C0C5C0C5C0C5C0C5403D49008D4670478A
:1002100010B50446C046C0462046FFF78EFF10BD0D
:100220000048704700F0FF1F01491820ABBEFEE7F1
:1002300026000200704710B50446F0212140084610
:10024000002100F057F82107080E002100F052F8B5
:10025000042C03DA042000F097F802E0012000F0FB
:1002600093F810BD10B50446F02121400846012145
:1002700000F040F82107080E012100F03BF80120B2
:1002800000F082F810BD000000B5FF2001301749D2
:1002900008608860C860086148618861C861144866
:1002A0004069FD210843124948611E2000F06CF8A6
:1002B0000A2000F069F8012000F066F8012000F043
:1002C00063F80021202000F015F8012000F05CF810
:1002D0002820FFF7B0FF0620FFF7ADFF0120FFF752
:1002E000AAFF0F20FFF7A7FF00BD000000C00440D9
:1002F000C0F00F4030B504460D46F02004402D07F5
:100300002D0F204628430B4908602046284308212A
:10031000084308490860002000F036F805480460EA
:10032000002004490860084640680221084301494A
:10033000486030BDC0F00F400020014908607047A0
:100340000081044006E000F005F94120FFF78AFF34
:1003500000F00CF9F7E700000A48806B012109035F
:100360000843084988630846806B09150843054916
:1003700088630846806B012149030843014988636B
:100380007047000000800440002106E0002200E0E9
:10039000521C034B9A42FBDB491C8142F6DB70473F
:1003A000581B0000002107E0002200E0521C7D23C2
:1003B0009B019A42FADB491C8142F5DB7047000041
:1003C0000A48806B0121C902084308498863FF205D
:1003D00004300749086048608860C8600861486167
:1003E0008861C8610F20034948617047008004405C
:1003F00000B00440C0F00F4000000000000000000A
:10040000FFFFFFFFFFFFFFFFFFFFFFFFFEFFFFFFFD
:1004100038B54EA0006800904D4840690F21084350
:100420004B4948610F2088600220FFF7BBFF484816
:100430000069F02108400546002045494861F02D3B
:1004400000D138BD002418E0002041494861084629
:1004500040696946095D08433D4948616846005D59
:1004600088600220FFF79EFF39480069F0210840AC
:100470000546F02D00D002E0641C042CE4DB00BF34
:100480000020334948613248403040680221084327
:100490002F4940314860042C01D10020D1E7702D54
:1004A00012D1002C06D0012C06D0022C06D0032C31
:1004B00008D105E04120C4E74220C2E74320C0E75D
:1004C0004420BEE70020BCE7B02D12D1002C06D09E
:1004D000012C06D0022C06D0032C08D105E03320D5
:1004E000AFE73620ADE73920ABE72320A9E70020AE
:1004F000A7E7D02D12D1002C06D0012C06D0022C5B
:1005000006D0032C08D105E032209AE7352098E781
:10051000382096E7302094E7002092E7E02D12D1B2
:10052000002C06D0012C06D0022C06D0032C08D1BA
:1005300005E0312085E7342083E7372081E72A2052
:100540007FE700207DE700207BE700000102040830
:1005500080F00F4000B50120FFF76DFEFF20F53061
:10056000FFF712FF8020FFF766FE00BD00B57D207B
:10057000C000FFF709FF0120FFF75DFE00BDFFF798
:10058000EBFEFFF781FEFFF71BFF00F043F806E0EC
:10059000FFF7E0FF4D20FFF765FEFFF7E7FFF7E706
:1005A00010B586B010A207CA03AB07C311A103C9D7
:1005B00002910190FFF7CEFF03A8FFF7E5FD044687
:1005C000214603A800F01AF8C020FFF734FE01A866
:1005D000FFF7DAFD0446214601A800F00FF8FFF707
:1005E000C5FF06B010BD00004D616E75616C3A200C
:1005F000310000004175746F3A20320070B5054635
:100600000E46002403E0285DFFF72CFE641CB44274
:10061000F9DB70BD202400BFFFF7C2FFFFF7F8FE33
:100620000446312CF8D1322CF6D1204600F006F8E1
:10063000312C01D1FFF7ABFFFFF784FE3EB5044636
:1006400009A207CA6B4607C3FFF784FF6846FFF796
:100650009BFD054629466846FFF7D0FF2046FFF779
:1006600001FEFFF783FF3EBD73656C6563746564CF
:10067000000000008406000000F0FF1F6001000081
:040680000401000071
:0400000500000149AD
:00000001FF
