:020000040000FA
:1000000060F1FF1F75010000810100008301000005
:1000100000000000000000000000000000000000E0
:10002000000000000000000000000000850100004A
:1000300000000000000000008701000089010000AE
:100040008B0100008B0100008B0100008B01000080
:100050008B0100008B0100008B0100008B01000070
:100060008B0100008B0100008B0100008B01000060
:100070008B0100008B0100008B0100008B01000050
:100080008B0100008B0100008B0100008B01000040
:100090008B0100008B0100008B0100008B01000030
:1000A0008B0100008B0100008B0100008B01000020
:1000B0008B0100008B010000C51100008B010000C6
:1000C00000F002F800F046F80CA030C808382418F8
:1000D0002D18A246671EAB4654465D46AC4201D180
:1000E00000F038F87E460F3E0FCCB646012633426C
:1000F00000D0FB1AA246AB4633431847B41B00009E
:10010000C41B00000023002400250026103A01D360
:1001100078C1FBD8520700D330C100D50B607047BF
:1001200010B5692902D100F081F810BD642902D10F
:1001300000F07CF810BD002010BD1FB500F00EFFD0
:1001400004000020002101F077FC401C60601FBD0E
:1001500010B510BD00F0E2FE1146FFF7EEFF01F012
:1001600055FA00F00EFF03B4FFF7F2FF03BC00F0F6
:1001700083FF000072B60948804762B6084800470E
:10018000FEE7FEE7FEE7FEE7FEE706480047000061
:1001900005480649044A064B70470000D911000083
:1001A000C10000008B01000060F0FF1F60F1FF1F25
:1001B00060F0FF1F0FB41CB5074B06AA7B446946CD
:1001C0000090059800F009F90020694600F0A5FDAF
:1001D0001CBC08BC04B018475B0B000070B504469B
:1001E00085690068C10601D5302600E02026C007D9
:1001F00007D070BD62683046A1689047206A401CF5
:1002000020626D1EF6D570BD70B504468569007814
:10021000C00707D170BD6268A16820209047206A9E
:10022000401C20626D1EF6D570BD0000F7B500259C
:1002300075291068009914A611D0C046C046002840
:1002400002DA404211A608E0009909688A0701D540
:100250000FA602E0490704D50EA6012501E0C0461D
:10026000C046009F0024243704E000F093FD3031A5
:100270003955641C0028F8D12B4632462146009897
:1002800000F0F3FCFEBD0000000000002D000000A7
:100290002B00000020000000F3B50446002081B0D0
:1002A00020622046E168884700287AD0252802D0BD
:1002B0006268A16871E0E16820460025884706462B
:1002C0000020E0610746A0612A2E0AD0304600F0E7
:1002D00089FF002827D0B8000019303E00908661C1
:1002E00019E00298BA00121902C8916102902046E2
:1002F000E1688847012F064617D1E06900281FDA18
:10030000202085431CE000980A2180694843009919
:100310008019303888612046E1688847064600F039
:1003200061FF0028EFD1012F0AD02E2E08D12046E0
:10033000E16888470646202005437F1C022FC3DB67
:10034000A069002803DA4042A06101200543E807C4
:1003500001D010208543002E23D030464138192883
:1003600003D80120C00205432036204625603146CF
:10037000029A1546FFF7D4FE00280BD0012806D0BC
:10038000ED1DE808C000083002908AE709E02D1D45
:10039000029586E762683046A1689047206A401C53
:1003A0007EE7206AFEBD70B5064600F00DF80468D1
:1003B000054630460A22002100F0B4FC2C6070BDD6
:1003C00070477047704700000048704700F0FF1FFB
:1003D00001694A1C02610878704700B58FB002912C
:1003E0000021059105490193794403911146049038
:1003F0006846FFF751FF0FB000BD0000E5FFFFFFAB
:10040000FFFFFFFFFFFFFFFFFFFFFFFFFEFFFFFFFD
:1004100030B5441C03E00178401C00290DD0810751
:10042000F9D10B4BDD0104C8D11A91432940FAD010
:10043000001B0A0603D0C01E30BD001B30BD0A04DD
:1004400001D0801E30BD0902FCD0401E30BD00002E
:10045000010101010246C80FC00781434B0030B5BE
:100460004B405B009B0D20D01923DB06C9180123EC
:100470001B05994220DB0324A40704251346AB4047
:100480000BD3002B04D1EB0613409B00E34204D4B2
:1004900001246407002312195941FF231B059942C7
:1004A0000BD2C9000143500F09E0CB0204D5014330
:1004B0000803024305D0054830BDFF21C9050843A4
:1004C00030BD084607210905884330BD0000C07FC4
:1004D000F0B5F94D0C091E092C402E402F468BB06B
:1004E000A7437DD0B543FCD0002E7AD0002CFCD0A1
:1004F0000D465D40ED0F2543AC1BFF25AD0464198F
:100500000894C502440DC9022143500DDC02044386
:100510000120C00701430443D2020191200C110CB9
:1005200000958C46010423468B430A9161460904D9
:10053000E24D8A430991010A7D44491980390978BD
:1005400005464D4301266D18F605751B6943C90C18
:10055000640B891C4C436418B5012C1B250C2E041C
:10056000B4434C434D43210C691889090591009D02
:10057000E90701D00121C90704912C4601996708B8
:10058000CD072F434C08059DE10B4D432D0C29460B
:100590006646754302950D4645432E46029D7D1BDA
:1005A000B44100950D465D4301942C0C2F040D467B
:1005B0005543AE462D0C3D43029503947546049C6D
:1005C0002D04641B049406D2029C039D641C002627
:1005D00075410395029401AC70CC009F7D1B01E036
:1005E0003EE162E1B4410904009507910194059947
:1005F000A4086143090C0C464443650BE7040C4610
:1006000066467443A646640B3C43039502947446C5
:10061000049DE4042C1B049406D2029C039D641CDC
:10062000002675410395029401AC70CC009F7D1BA0
:10063000B44101940C465C430095650FE7000C46FD
:100640005443A646640F3C43039502947446049DAC
:10065000E4002C1B049406D2029C039D641C00261B
:1006600075410395029401AC70CC009F7D1BB44191
:10067000AE09AF06049DC900AD092F43049DA40631
:10068000AD060495079D344369180791059DE10B5C
:100690004D432D0C29466646754302950D4645434C
:1006A0002E46029D7D1BB44100950D465D4301948D
:1006B0002C0C2F040D465543AE462D0C3D430295A0
:1006C00003947546049C2D04641B049406D2029C7A
:1006D000039D641C002675410395029401AC70CC07
:1006E000009F7D1BB44101948C050694079C890AE8
:1006F000611800950791019C0599A4086143090CB4
:100700000D464543680BEF040D46644665436C0B8C
:100710003C43049FED047D1BAC4602D20025641CC3
:100720006841009E019D371B85410846584301954D
:100730000C46460FC5005443600F28436546E4004D
:100740002C1B02D20025401C6E41019D3F1AB54171
:100750002846BD09800628438446A009BF064E02EC
:100760000699A40676180743079D002068410A9958
:10077000079019430020099B00906046FF1913431E
:100780004041E20F64003A43A4460446D71A8C4124
:10079000A04203D90120009020463A46C70F941882
:1007A00040416246D20F2243644664000494009C98
:1007B000BE466400D71AA446044602978C41774689
:1007C000002F01D1A04204D96046401C8446029A01
:1007D0002046C40FA64694184041049A0546D20FFD
:1007E000224364466400D31A8D417146002901D129
:1007F000A84202D928461A46641C10430122002848
:1008000000D0164361020020079B891904465C4111
:100810000223002C02DB491813466441089DCE0ACE
:100820002D145D194B056705E10A2C050D19089972
:100830003E43C9076940002B08D0934006D30022ED
:10084000761C5141002B01D1760876001C4A002D00
:1008500043DB154241D0AA433FD030460BB0F0BD38
:1008600006180D464D41174C7642AC411AD39518E7
:100870001C465C41134A6D42A24113D3012252052A
:100880004C00D4420AD15C00D4420BD04B4002D57C
:1008900092021143E2E749004908DFE75940C90FD6
:1008A000C90718E000200849D8E7054801420DD1E2
:1008B0000342F7D0F2E700000000FF07F416000043
:1008C0000000F07F0000E0FF0000F87F1148594071
:1008D0000143C01241400020C0E70123089A9B0653
:1008E0009A4205DC032252078918C90FC907B5E7E8
:1008F000052252078918074A1143D2125140ADE729
:1009000070B515461C4602460B4628462146FFF7A1
:10091000DFFD70BDFFFFFF7F1F22030C02D10F22FE
:10092000000402D0030E03D004E00020014670470B
:100930000002083A030F01D10001121F830F01D1F9
:100940008000921E002801DB4000521E1205511843
:100950004205C012411810467047C10FC90700D0A8
:100960004042012292071143D6E701218907D3E7CC
:10097000F0B58B4C0F09254689B0BD437BD01D09CE
:100980002646AE43FAD00E465E402740F60F3E4361
:10099000254071D024012142FBD0FF24AD19A404CD
:1009A0002D1B039501252D05DB02DB0AC9022B4314
:1009B000C90A29431E010901040F130F0501214330
:1009C0001701880B820391432D098C46A90B1E4306
:1009D0008A039543B30B9A0396433F09BA0B9403DA
:1009E000A74302962E467E430497B6464E19D71962
:1009F0000C460196544305977E43371B7646BF1B32
:100A00003601B646BE0B361900967646BC04371939
:100A1000009C01D3641C00946400002F01D00126C7
:100A20003443029E049F754366467E4304967600D7
:100A300034196E0034190094029C019E1C196643FF
:100A4000751BAE46069465464519059C05956C4395
:100A5000594375460891691A0191049E0146514314
:100A6000A41B0491611A009C0791E10605D061095D
:100A70000122114302E072E06EE06109089D002747
:100A80002C0A2D066918049D7C412A0A2D06691836
:100A9000019D6241AC0DAD026D185441079A910D54
:100AA000920255196141029A644658435443069B89
:100AB000059A5A43121A131B9A0E9B015B187A412E
:100AC000010B0005C3185141220A200644195A415E
:100AD0009A4200D2491C01204002814203D31523CF
:100AE0000226F64302E014230326F6432020C51A0B
:100AF000A9401746AF40DA400A4320460399D84040
:100B00000914731819055118039A3843D207514034
:100B1000AC4009D00122944006D30022401C514130
:100B2000002C01D1400840001E4A934212D30122FA
:100B300003989206904207DB0520400709181A48DF
:100B40000143C012414004E0032040070818C10FD0
:100B5000C907002009B0F0BD0020F107FAE7051829
:100B60000C464C4111486D42A04115D394181A46C9
:100B70005A410E48644290410ED301204A0040057C
:100B8000824209D35A00824206D35940C90F084A0B
:100B9000C90700201143DDE700200649DAE700001D
:100BA0000000FF07FE070000FFFFFF7F0000E0FFDF
:100BB0000000F07F0000F87F0121C90501234118E2
:100BC00042001B06D3185B0E0AD0C1100722D206C2
:100BD000891840075242D14201D552008918704706
:100BE000090208D50146002A03D0C10FC907002019
:100BF000704710467047420202D0002002497047F9
:100C0000072109050143F4E70000F87F1F22030CC8
:100C100002D10F2200041CD0030E01D10002083AB9
:100C2000030F01D10001121F830F01D18000921E1A
:100C3000002801DB4000521ED20551180212511843
:100C40001922904004D3491C002801D149084900C9
:100C500008467047C10FC90700D0404201229207E1
:100C60001143D3E701218907D0E7FFB504460D46BC
:100C700081B0243000902168880604D51022E069F4
:100C80009143216000E00120A84201DD471B00E004
:100C900000270498A1697A191018081AA061207811
:100CA000C00602D42046FFF799FA002608E0039810
:100CB0006268A168805D9047206A401C761C2062B3
:100CC00004988642F3DB2078C0060AD52046FFF759
:100CD00085FA06E06268A16830209047206A401CCF
:100CE000206238467F1E0028F4DC07E00098626826
:100CF000A168405D9047206A401C206228466D1E16
:100D00000028F3DC2046FFF77FFA2078000602D5A2
:100D1000022005B0F0BD0120FBE70A681070521CEC
:100D20000A607047F7B50F460026009C2578641CC2
:100D3000002D05D000F078F80068405DC007F5D1BF
:100D40002B2D02D02D2D18D0641E3946029A204634
:100D500000F072F8002F04D03968A14201D1009947
:100D600039607105022400290BDA4042002803DDB6
:100D7000FFF72AFB0460A007FEBD012080020643A6
:100D8000E3E70028F8DAFFF71FFB04600048FEBD28
:100D9000FFFFFF7F01468008081A02091018020AA7
:100DA0001018020C1018C008820012185200891A7C
:100DB00001E0401C0A390A29FBD2704710B5FF2315
:100DC0001B0644009C421DD84C009C421AD8034686
:100DD000124A0B4307D4401A02D3EFF3008010BD30
:100DE000EFF3008010BD081A06D2EFF30080012156
:100DF0009043C907084302E0EFF30080904380F37B
:100E0000008810BD0D231B041A4204D01146002097
:100E100000F065F810BD00F079F810BD00000090FA
:100E20000048704700F0FF1F10B500F097F8001D54
:100E300010BD00BF050C0000F7B5154682B00027B5
:100E4000029C2078641C0197302802D0002D15D018
:100E500015E020780127641C782804D0582802D097
:100E6000002D09D00BE0002D01D0102D07D12078E6
:100E700000271025641C02E0082500E00A25002652
:100E8000009610E00099012769430818294671432C
:100E9000020C80B200908E183804864201D30120E3
:100EA00001902078641C294600F05CF80028E9DAFB
:100EB0000398002805D0002F01D0641E00E0029C9A
:100EC00004600198002806D0FFF77EFA0221016035
:100ED000C81E05B0F0BD009930040843F9E7C80208
:100EE00012D54803400F002804D0C803C043012195
:100EF00088407047EFF300800001000903210907D3
:100F0000084380F3008870470020704710B50248FE
:100F100000F03FF810BD00000000C07F7546FFF7ED
:100F20007FFFAE46050069465346C008C0008546AF
:100F300018B020B5FFF72CF960BC00274908B64669
:100F40000026C0C5C0C5C0C5C0C5C0C5C0C5C0C5D8
:100F5000C0C5403D49008D467047000000487047BD
:100F600020F0FF1F3A2800D23038202302469A434F
:100F7000412A01D310463738884201D30020C043AC
:100F8000704710B50446C046C0462046FFF7EBF850
:100F900010BD10B50C461107090F092904D00A2904
:100FA0000AD008290CD104E011460820FFF797FF6A
:100FB00006E0510606D501E0510601D50120C00723
:100FC000214610BDD10607D501010909CC08490702
:100FD000000E0006044309E0410F20024907000A01
:100FE0000143200E00061D22D14101430846E7E7D8
:100FF000024670B50A4392072AD11E4DEE0104C87D
:1010000008C9541B9443344017D0D0B2D9B2401A07
:101010002106014310D190B299B2401A2104014334
:101020000AD110021902000A090A401A21020143DA
:1010300002D1100E190E401A70BD9A42DFD010BABC
:1010400019BA884201D9012070BD0020C04370BD8B
:1010500002780B78401C491C002A09D09A4207D11B
:1010600002780B78401C491C002A01D09A42EFD02C
:10107000D01A70BD0101010101491820ABBEFEE785
:10108000260002007047000000200B4908610B4851
:10109000C06B490508430949C8630948006A4021F3
:1010A0008843074908620846406A07210843044903
:1010B00048625C208860704740D004400080044053
:1010C00000B0034010B50446F0212140084600213D
:1010D00000F056F82107080E002100F051F8042C0A
:1010E00003DA042000F0AAF802E0012000F0A6F8DC
:1010F00010BD10B50446F02121400846012100F042
:101100003FF82107080E012100F03AF8012000F015
:1011100095F810BD00B5FF200130174908608860C0
:10112000C860086148618861C86114484069FD2150
:101130000843124948611E2000F080F80A2000F0A0
:101140007DF8012000F07AF8012000F077F8002106
:10115000202000F015F8012000F070F82820FFF79B
:10116000B1FF0620FFF7AEFF0120FFF7ABFF0F2016
:10117000FFF7A8FF00BD000000C00440C0F00F4012
:1011800030B504460D46F02004402D072D0F2046B3
:1011900028430B4908602046284308210843084992
:1011A0000860002000F04AF8054804600020044967
:1011B000086008464068022108430149486030BD84
:1011C000C0F00F4010B500F0CDF8062001490862CC
:1011D00010BD000080900440002001490860704765
:1011E0000081044030380A2801D2012070470020D5
:1011F000704770B504460D462046FFF709F90646CC
:10120000A5550021701C215470BD00000A48806B58
:10121000012109030843084988630846806B0915C2
:101220000843054988630846806B01214903084348
:10123000014988637047000000800440002106E0F7
:10124000002200E0521C034B9A42FBDB491C814206
:10125000F6DB7047581B0000002007E000BF05497F
:101260000968802211400029F9D0401C02498842B7
:10127000F4DB70470090034040420F00002107E07C
:10128000002200E0521C7D239B019A42FADB491C9C
:101290008142F5DB70470000FF200130034988627E
:1012A00080000349086048617047000000A00440C6
:1012B00040F00FF8F8B50020009000BF00F02DFBC3
:1012C000C820FFF7BBFF00F0D9F80446002C15D06A
:1012D000412C13D021466846FFF78BFF6846FFF785
:1012E00097F8401E69460D5C284600F0EBFAFF2097
:1012F000F530FFF7A3FF0120FFF7E4FE412CDDD11D
:101300006846FFF750F806463046F8BDF0B585B0A0
:10131000002700201049086000BF0F4800688021A6
:1013200008400028F9D00C4807693846FFF715FB3C
:1013300005460022094BFFF71BFB0022084B0191D9
:101340000090FFF7C5F803910290FFF783F8044679
:10135000204605B0F0BD000000B0034000A074407E
:101360000000F04010B5012080020549C86000BFB0
:1013700000F008F800F082F80446232CF8D110BDE4
:1013800040F00F4010B586B014A207CA03AB07C3E4
:1013900015A207CA6B4607C30120FFF793FEFF2083
:1013A000F530FFF74BFF8020FFF78CFE03A8FFF717
:1013B0002FF80446214603A800F00EFAC020FFF7DC
:1013C00081FE03A8FFF724F804462146684600F092
:1013D00003FA00F011F906B010BD00004964646C16
:1013E00065204D6F646500002320746F2072657363
:1013F000756D65001E48806B0121490208431C4938
:1014000088631C484068FF2104310843194948603B
:1014100019484069022188431749486115484068C6
:101420000F21090488431349486008464068052194
:10143000490408430F49486008468068FF21043189
:1014400008430C4988600C484069042188430A49D4
:101450004861084880680F2109048843054988606D
:10146000084680680521490408430249886070479E
:10147000008004400090044000F00F4038B54EA0BA
:10148000006800904D4840690F2108434B4948616E
:101490000F2088600220FFF7F1FE48480069F02124
:1014A00008400546002045494861F02D00D138BD6F
:1014B000002418E000204149486108464069694617
:1014C000095D08433D4948616846005D8860022027
:1014D000FFF7D4FE39480069F02108400546F02D99
:1014E00000D002E0641C042CE4DB00BF0020334980
:1014F0004861324840304068022108432F4940315A
:101500004860042C01D10020D1E7702D12D1002CAD
:1015100006D0012C06D0022C06D0032C08D105E001
:101520004120C4E74220C2E74320C0E74420BEE791
:101530000020BCE7B02D12D1002C06D0012C06D023
:10154000022C06D0032C08D105E03320AFE736206B
:10155000ADE73920ABE72320A9E70020A7E7D02D8E
:1015600012D1002C06D0012C06D0022C06D0032C60
:1015700008D105E032209AE7352098E7382096E731
:10158000302094E7002092E7E02D12D1002C06D005
:10159000012C06D0022C06D0032C08D105E0312006
:1015A00085E7342083E7372081E72A207FE7002082
:1015B0007DE700207BE700000102040880F00F4077
:1015C0000A48806B0121C902084308498863FF204B
:1015D00004300749086048608860C8600861486155
:1015E0008861C8610F20034948617047008004404A
:1015F00000B00440C0F00F4000B57D20C000FFF7F0
:101600001DFE0120FFF75EFD00BD00001CB500BF00
:1016100005250026002472B6FFF7F8FDFFF7D0FF7E
:10162000FFF778FDFFF7E6FEFFF736FE00F022F940
:10163000FFF72AFD7D20C000FFF700FE1B48006871
:101640000121890708431949086000F031F87D201D
:10165000C000FFF7F3FD0120FFF734FDFFF72AFE7E
:101660000646304600F0F8F862B61EE0FFF74EFE80
:101670000446204600F06EF82846FFF7EBFA01908A
:101680003046FFF7E7FA2146009000F05DFA074682
:10169000019900F02DFA02D200F0A8F905E00A2025
:1016A00000F048F81E2000F097F9DFE700E100E0C5
:1016B00010B588B017A2536891681068D268059376
:1016C00007920691049017A31A681B1D0BCB01AC5F
:1016D0000BC400920120FFF7F5FCFF20F530FFF767
:1016E000ADFD8020FFF7EEFC04A8FEF791FE044656
:1016F000214604A800F070F8C020FFF7E3FC68461C
:10170000FEF786FE04462146684600F065F808B0FC
:1017100010BD000053656C65637420546172676589
:101720007400000054656D70657261747572653A7D
:101730000000000010B504460120800204498860C2
:10174000204600F049F9012080020149486010BD9F
:1017500040F00FF870B588B006461AA207CA05AB6C
:1017600007C3002001900290039004900120FFF72E
:10177000A9FCFF20F530FFF761FD8020FFF7A2FCF8
:101780003046FFF719FA044622460B4610A101A87D
:10179000FEF710FD05A8FEF73BFE0446214605A80E
:1017A00000F01AF8C020FFF78DFC01A8FEF730FE0C
:1017B0000446214601A800F00FF8FFF71DFF08B00E
:1017C00070BD00004C6563747572653A00000000DE
:1017D00025362E326946000070B505460E460024B7
:1017E00003E0285DFFF785FC641CB442F9DB70BDA3
:1017F0003EB5044615A103C9029101900020009056
:10180000224614A16846FEF7D5FC0120FFF75AFCDA
:10181000FF20F530FFF712FD8020FFF753FC01A8F1
:10182000FEF7F6FD0546294601A8FFF7D5FFC020C3
:10183000FFF748FC6846FEF7EBFD0546294668467B
:10184000FFF7CAFFFFF7D8FE3EBD00005461726784
:1018500065743A002564000070B505462846FFF718
:10186000C7FF00BF00F096F8FFF708FE0446232CE0
:10187000F8D170BD1048C06B0121490608430E49DC
:10188000C863084640680121090608430A494860C0
:1018900000200A4908600720086009488860084657
:1018A000006880210843054908600846006808214F
:1018B00008430249086070470080044000900340DC
:1018C000FFFF000010B504460120FFF7FBFBFF20DF
:1018D000F530FFF7B3FC8020FFF7F4FB5320FFF750
:1018E00008FC6520FFF705FC6C20FFF702FC652073
:1018F000FFF7FFFB6320FFF7FCFB7420FFF7F9FB0A
:101900006520FFF7F6FB6420FFF7F3FB3A20FFF7B3
:10191000F0FB2046FFF7EDFB10BD00B50120FFF7FF
:10192000D1FBFF20F530FFF789FC8020FFF7CAFBD1
:101930005320FFF7DEFB6520FFF7DBFB6C20FFF792
:10194000D8FB6520FFF7D5FB6320FFF7D2FB74209F
:10195000FFF7CFFBC020FFF7B5FB6120FFF7C9FB06
:101960002020FFF7C6FB6E20FFF7C3FB7520FFF7B3
:10197000C0FB6D20FFF7BDFB6220FFF7BAFB6520BF
:10198000FFF7B7FB7220FFF7B4FB3A20FFF7B1FB7C
:1019900000BD00001FB50CA30FCB6C460FC4012087
:1019A000FFF790FBFF20F530FFF748FC8020FFF7A2
:1019B00089FB6846FEF72CFD044621466846FFF782
:1019C0000BFFFFF719FE1FBD2320746F206D6561AB
:1019D000737572650000000010B50346002402E034
:1019E000FFF73AFC641C9C42FADB10BD1FB50EA346
:1019F0000FCB6C460FC40120FFF764FBFF20F530CE
:101A0000FFF71CFC8020FFF75DFB6846FEF700FD3A
:101A1000044621466846FFF7DFFEFFF7EDFD28206C
:101A2000FFF788FE1FBD0000587472656D65204386
:101A30006F6F6C646F776E0010B500290AD008785C
:101A4000002807D005487844FFF7D2FA002801D0D3
:101A5000002010BD0248784410BD00007A0200004A
:101A60007202000070B501250400ED074C4020D43F
:101A7000441A01D2001B0919C60D4B00F2B2FF2A0D
:101A800029D01B0E2CD000020C02D31A2C43DC40B0
:101A90002843051910D2280A02D3401C6D0611D024
:101AA000761EF6058019FF2A00DA70BDC00DC0054C
:101AB00070BD694000F05AF801200543C541521C31
:101AC000761CE8E764089C40C90161408900E7D1C1
:101AD0000124A043E4E71B0E440200D0034870BD7C
:101AE000002AFCD1C00FC00770BD00BF0000C07F3E
:101AF00001230A00DB0502430DD4DA4203D49A42E3
:101B000007D481427047D94214D4D84212D48142BA
:101B1000704789427047DA4203D59A42F9D5884224
:101B200070475B004A00DA4204D24200DA4201D236
:101B3000884270474840414010B5024A4840FFF78C
:101B40003DF910BD0900160470B50125ED07684088
:101B500004004C4002D5694000F008F8FFF788FF08
:101B600070B501250400ED074C4022D4441A02D27E
:101B70006C40001B0919C60D4B00F2B2FF2A4BD076
:101B80001B0E50D000020C02D31A2C43DC40A84399
:101B9000051B05D5AD0019D36D08761E521E37D032
:101BA000F605280A01D2801970BD70416D0603D078
:101BB00070BD6940FFF75CFF9C400902614049002D
:101BC00001D0401E70BD0124A04370BD6D081DD022
:101BD00001202B0C01D12D0410302B0E01D12D0230
:101BE00008302B0F01D12D01001DAB0F01D1AD002D
:101BF000801CEB0F01D16D00401C6D00361A121ACB
:101C0000680AF5054019012A02DB70BD002070BD8D
:101C1000C036300AC00770BD1B0E440201D1FF2B35
:101C200000D1024870BD002AF0D070BD0000C07F16
:101C300080807F7E7D7C7B7A797877767675747309
:101C4000727171706F6E6E6D6C6C6B6A6A696868C8
:101C5000676666656464636362616160605F5F5E5E
:101C60005E5D5D5C5C5B5B5A5A59595858575756D4
:101C70005655555554545353525252515150505039
:101C80004F4F4F4E4E4D4D4D4C4C4C4B4B4B4A4A8B
:101C90004A494949484848474747474646464545CF
:101CA0004544444444434343434242424241414108
:101CB000D01D000000F0FF1F6001000004010000C3
:101CC0001001000043000000F8FFFFFF004040400B
:101CD00040404040404041414141414040404040FF
:101CE00040404040404040404040404040050202AB
:101CF000020202020202020202020202022020206A
:101D000020202020202020020202020202029090C5
:101D100090909090101010101010101010101010C3
:101D20001010101010101010020202020202888817
:101D30008888888808080808080808080808080823
:101D4000080808080808080802020202400000000B
:101D50000000000000000000000000000000000083
:101D60000000000000000000000000000000000073
:101D70000000000000000000000000000000000063
:101D80000000000000000000000000000000000053
:101D90000000000000000000000000000000000043
:101DA0000000000000000000000000000000000033
:101DB0000000000000000000000000000000000023
:101DC0000000000000000000000000000000000013
:040000050000017581
:00000001FF
