:020000040000FA
:1000000060F1FF1F49010000550100005701000089
:1000100000000000000000000000000000000000E0
:100020000000000000000000000000005901000076
:1000300000000000000000005B0100005D01000006
:100040005F0100005F0100005F0100005F01000030
:100050005F0100005F0100005F0100005F01000020
:100060005F0100005F0100005F0100005F01000010
:100070005F0100005F0100005F0100005F01000000
:100080005F0100005F0100005F0100005F010000F0
:100090005F0100005F0100005F0100005F010000E0
:1000A0005F0100005F0100005F0100005F010000D0
:1000B0005F0100005F0100005F0100005F010000C0
:1000C00000F002F800F030F80CA030C8083824180E
:1000D0002D18A246671EAB4654465D46AC4201D180
:1000E00000F022F87E460F3E0FCCB6460126334282
:1000F00000D0FB1AA246AB46334318472C0300003E
:100100003C0300000023002400250026103A01D300
:1001100078C1FBD8520700D330C100D50B607047BF
:100120001FB51FBD10B510BD00F031F81146FFF727
:10013000F7FF00F06DF900F049F803B4FFF7F2FFA4
:1001400003BC00F04FF8000072B60948804762B661
:1001500008480047FEE7FEE7FEE7FEE7FEE7064841
:100160000047000005480649044A064B7047000056
:10017000E1020000C10000005F01000060F0FF1F0D
:1001800060F1FF1F60F0FF1F7047704770477546B2
:1001900000F024F8AE46050069465346C008C0008A
:1001A000854618B020B5FFF7DDFF60BC0027490881
:1001B000B6460026C0C5C0C5C0C5C0C5C0C5C0C5FF
:1001C000C0C5C0C5403D49008D46704710B50446C6
:1001D000C046C0462046FFF7B0FF10BD004870473C
:1001E00000F0FF1F01491820ABBEFEE72600020009
:1001F000704700002148806B0121890208431F4994
:1002000088630846806B0121090308431B49886302
:1002100088151B4988601B484069012189040843EF
:100220001849486108464068012189040843154976
:10023000486088151249C860124840690121C90404
:10024000084310494861084640680121C904084331
:100250000C49486088150C4948600A48803040695C
:10026000022108430749803148610846406802215D
:100270000843044980314860704700000080044012
:1002800040A0044040F00F4000C00440C107C90F27
:10029000002904D001218904104A916003E0012162
:1002A00089040E4A516002210140002904D0012135
:1002B000C9040A4A916003E00121C904074A516058
:1002C00004210140002904D00221044A80329160B7
:1002D00003E00221014A80325160704740F00F4034
:1002E000002001490860704700810440002107E0B8
:1002F000002200E0521C7D239B019A42FADB491C3C
:100300008142F5DB7047000038B52BA000680090F3
:100310002A4840690F210843284948610F20886016
:100320000220FFF7E3FF25480069F0210840054659
:10033000002022494861F02D00D138BD002418E08A
:1003400000201E494861084640696946095D084326
:100350001A4948616846005D88600220FFF7C6FFC1
:1003600016480069F02108400546F02D00D002E053
:10037000641C042CE4DB00BF002010494861042CFD
:1003800000D1DAE7E02D03D1A000401CC0B2D4E7D1
:10039000D02D03D1A000801CC0B2CEE7B02D03D178
:1003A000A000C01CC0B2C8E7702D03D1A000001D82
:1003B000C0B2C2E70020C0E70102040880F00F408D
:1003C0000A48806B0121C902084308498863FF205D
:1003D00004300749086048608860C8600861486167
:1003E0008861C8610F20034948617047008004405C
:1003F00000B00440C0F00F4000000000000000000A
:10040000FFFFFFFFFFFFFFFFFFFFFFFFFEFFFFFFFD
:10041000FFF7D6FFFFF7EEFE05E0FFF775FF044696
:100420002046FFF733FFF8E73804000000F0FF1F15
:0804300060010000040100005E
:0400000500000149AD
:00000001FF
