:020000040000FA
:1000000060F1FF1F910100009D0100009F010000B1
:1000100000000000000000000000000000000000E0
:10002000000000000000000000000000A10100002E
:100030000000000000000000A3010000A501000076
:10004000A7010000A7010000A7010000A701000010
:10005000A7010000A7010000A7010000A701000000
:10006000A7010000A7010000A7010000A7010000F0
:10007000A7010000A7010000A7010000A7010000E0
:10008000A7010000A7010000A7010000A7010000D0
:10009000A7010000A7010000A7010000A7010000C0
:1000A000A7010000A7010000A7010000A7010000B0
:1000B000A7010000A7010000E5050000A70100005E
:1000C00000F002F800F038F80CA030C80838241806
:1000D0002D18A246671EAB4654465D46AC4201D180
:1000E00000F02AF87E460F3E0FCCB646012633427A
:1000F00000D0FB1AA246AB4633431847C80B00009A
:10010000D80B00000023002400250026103A01D35C
:1001100078C1FBD8520700D330C100D50B607047BF
:1001200010B5642902D100F09DF810BD002010BD6B
:100130001FB51FBD10B510BD00F088F91146FFF7BF
:10014000F7FF00F0B7FC00F0A0F903B4FFF7F2FFEF
:1001500003BC00F0A3F9000070B505460C46164636
:1001600002E00FCC0FC5103E102EFAD2082E02D39B
:1001700003CC03C5083E042E07D301CC01C5361FAE
:1001800003E021782970641C6D1C761EF9D270BDC5
:1001900072B60948804762B608480047FEE7FEE7A6
:1001A000FEE7FEE7FEE7064800470000054806496F
:1001B000044A064B704700007D060000C1000000A5
:1001C000A701000060F0FF1F60F1FF1F60F0FF1F3C
:1001D0000FB41CB5074B06AA7B44694600900598EE
:1001E00000F0F9F80020694600F012F91CBC08BCC8
:1001F00004B0184735020000F8B50E46044600204A
:1002000020622046E1688847002829D0252802D0AE
:100210006268A16820E0E168204600278847050061
:100220001ED028464138192802D80127FF02203560
:100230003246204627602946FFF772FF002808D083
:10024000012804D0F61DF608F6000836D9E7361D59
:10025000D7E762682846A1689047206A401CCFE72C
:10026000206AF8BDF7B5002575291068009914A615
:1002700011D0C046C046002802DA404211A608E06C
:10028000009909688A0701D50FA602E0490704D53D
:100290000EA6012501E0C046C046009F0024243779
:1002A00004E000F0BAF830313955641C0028F8D168
:1002B0002B4632462146009800F02FF8FEBD000084
:1002C000000000002D0000002B00000020000000B6
:1002D00030B5441C03E00178401C00290DD0810793
:1002E000F9D10B4BDD0104C8D11A91432940FAD052
:1002F000001B0A0603D0C01E30BD001B30BD0A041F
:1003000001D0801E30BD0902FCD0401E30BD00006F
:1003100001010101704770477047FFB504460D4663
:1003200081B0243000902168880604D51022E0694D
:100330009143216000E00120A84201DD471B00E05D
:1003400000270498A1697A191018081AA06120786A
:10035000C00602D42046C046C046002608E00398E6
:100360006268A168805D9047206A401C761C20620C
:1003700004988642F3DB2078C0060AD52046C046A2
:10038000C04606E06268A16830209047206A401CA1
:10039000206238467F1E0028F4DC07E0009862687F
:1003A000A168405D9047206A401C206228466D1E6F
:1003B0000028F3DC2046C046C0462078000602D55F
:1003C000022005B0F0BD0120FBE7000001694A1CD6
:1003D00002610878704700B58FB002910021059145
:1003E0000549019379440391114604906846FFF74B
:1003F00003FF0FB000BD0000E5FFFFFF70470000E6
:10040000FFFFFFFFFFFFFFFFFFFFFFFFFEFFFFFFFD
:100410000A681070521C0A60704701468008081A6A
:1004200002091018020A1018020C1018C0088200E5
:1004300012185200891A01E0401C0A390A29FBD21D
:10044000704700000048704700F0FF1F7546FFF737
:10045000F9FFAE46050069465346C008C000854610
:1004600018B020B5FFF7A2FE60BC00274908B646C9
:100470000026C0C5C0C5C0C5C0C5C0C5C0C5C0C5B3
:10048000C0C5403D49008D46704710B50446C04682
:10049000C0462046FFF759FE10BD00000149182054
:1004A000ABBEFEE72600020000200B4908610B48A6
:1004B000C06B490508430949C8630948006A4021DF
:1004C0008843074908620846406A072108430449EF
:1004D00048625C208860704740D00440008004403F
:1004E00000B0034010B50446F02121400846002129
:1004F00000F056F82107080E002100F051F8042CF6
:1005000003DA042000F018F902E0012000F014F9E9
:1005100010BD10B50446F02121400846012100F02D
:100520003FF82107080E012100F03AF8012000F001
:1005300003F910BD00B5FF2001301749086088603D
:10054000C860086148618861C86114484069FD213C
:100550000843124948611E2000F0EEF80A2000F01E
:10056000EBF8012000F0E8F8012000F0E5F80021A8
:10057000202000F015F8012000F0DEF82820FFF719
:10058000B1FF0620FFF7AEFF0120FFF7ABFF0F2002
:10059000FFF7A8FF00BD000000C00440C0F00F40FE
:1005A00030B504460D46F02004402D072D0F20469F
:1005B00028430B490860204628430821084308497E
:1005C0000860002000F0B8F80548046000200449E5
:1005D000086008464068022108430149486030BD70
:1005E000C0F00F4010B517E00F48006A0221084024
:1005F000002804D000F0DCF802200B4908620A4809
:10060000006A04210840002806D072B600F0EEFA15
:1006100062B60420044908620348006A06210840C3
:100620000028E1D110BD0000809004400121890222
:100630000E4A51600E49C96B0122120611430C4A41
:10064000D16311464968012212061143084A5160DC
:100650000021084A1160282206494A610649054AD4
:100660009160114688610C211160704700C0044000
:100670000080044000800340B6AA00000020014929
:10068000086070470081044000B50346002B06DB7C
:100690001048834203DC1048FFF7C8FF19E00D48FB
:1006A000401C834206DB0D48834203DC0C48FFF705
:1006B000BDFF0EE00120C003834207DB09488342EF
:1006C00004DC06480A30FFF7B1FF02E00648FFF7F6
:1006D000ADFF00BD8F410000AD2A0000FF7F00008C
:1006E0005B550000FFBF0000B7AA000010B500F086
:1006F000B9F80446204600F033FA72B62046FFF7F8
:10070000C3FF62B610BD00000A48806B01210903D7
:100710000843084988630846806B09150843054962
:1007200088630846806B01214903084301498863B7
:100730007047000000800440002106E0002200E035
:10074000521C034B9A42FBDB491C8142F6DB70478B
:10075000581B0000002107E0002200E0521C7D230E
:100760009B019A42FADB491C8142F5DB704700008D
:1007700010B586B0142209A101A8FFF7EDFC00F026
:1007800083F901A8FFF7A4FD0446214601A800F063
:1007900021FA00F085F906B010BD0000313A4C2076
:1007A000323A4D20333A4D4820343A480000000098
:1007B00010B572B60B48FFF739FF01200A49C8602F
:1007C00062B600BF00F014F800F0A0F80446232C35
:1007D000F8D172B601200449C8600448FFF726FF2B
:1007E00062B610BDB7AA0000C0F00F40AD2A0000ED
:1007F00010B588B014A30FCB04AC0FC416A207CA5F
:1008000001AB07C30120FFF76DFEFF20F530FFF7B6
:1008100093FF8020FFF766FE04A8FFF759FD04460A
:10082000214604A800F0D6F9C020FFF75BFE04A81B
:10083000FFF74EFD0446214601A800F0CBF900F079
:100840002FF908B010BD0000456D657267656E63D5
:10085000792053746F7000002320746F20726573C9
:10086000756D65000021064A116000BF04490968E2
:10087000802211400029F9D0014908697047000021
:1008800000B003401E48806B0121490208431C4907
:1008900088631C484068FF210431084319494860B7
:1008A0001948406902218843174948611548406842
:1008B0000F21090488431349486008464068052110
:1008C000490408430F49486008468068FF21043105
:1008D00008430C4988600C484069042188430A4950
:1008E0004861084880680F210904884305498860E9
:1008F000084680680521490408430249886070471A
:10090000008004400090044000F00F4038B54EA035
:10091000006800904D4840690F2108434B494861E9
:100920000F2088600220FFF715FF48480069F0217A
:1009300008400546002045494861F02D00D138BDEA
:10094000002418E000204149486108464069694692
:10095000095D08433D4948616846005D88600220A2
:10096000FFF7F8FE39480069F02108400546F02DF0
:1009700000D002E0641C042CE4DB00BF00203349FB
:100980004861324840304068022108432F494031D5
:100990004860042C01D10020D1E7702D12D1002C29
:1009A00006D0012C06D0022C06D0032C08D105E07D
:1009B0004120C4E74220C2E74320C0E74420BEE70D
:1009C0000020BCE7B02D12D1002C06D0012C06D09F
:1009D000022C06D0032C08D105E03320AFE73620E7
:1009E000ADE73920ABE72320A9E70020A7E7D02D0A
:1009F00012D1002C06D0012C06D0022C06D0032CDC
:100A000008D105E032209AE7352098E7382096E7AC
:100A1000302094E7002092E7E02D12D1002C06D080
:100A2000012C06D0022C06D0032C08D105E0312081
:100A300085E7342083E7372081E72A207FE70020FD
:100A40007DE700207BE700000102040880F00F40F2
:100A50000A48806B0121C902084308498863FF20C6
:100A600004300749086048608860C86008614861D0
:100A70008861C8610F2003494861704700800440C5
:100A800000B00440C0F00F4000B50120FFF72AFD80
:100A9000FF20F530FFF750FE8020FFF723FD00BD5B
:100AA00000B57D20C000FFF747FE0120FFF71AFDCB
:100AB00000BD0000312472B6FFF726FEFFF7C8FF25
:100AC000FFF738FDFFF7F0FCFFF7DCFE00F0C6F89B
:100AD0000446312C01D100F089F87D20C000FFF7D9
:100AE0002BFE074800680121890708430449086074
:100AF00062B603E0322C01D1FFF7F8FDFAE70000FF
:100B000000E100E010B586B010A207CA03AB07C32E
:100B100011A103C902910190FFF7B6FF03A8FFF7E7
:100B2000D7FB0446214603A800F054F8C020FFF785
:100B3000D9FC01A8FFF7CCFB0446214601A800F030
:100B400049F8FFF7ADFF06B010BD00004D616E75AE
:100B5000616C3A20310000004175746F3A20320018
:100B6000F8B505462A461AA16846FFF731FB6846E4
:100B7000FFF7AEFB0646FFF787FF5620FFF7C9FCDD
:100B80006F20FFF7C6FC6C20FFF7C3FC7420FFF753
:100B9000C0FC6120FFF7BDFC6720FFF7BAFC6520B1
:100BA000FFF7B7FC3A20FFF7B4FCC020FFF79AFC30
:100BB0002020FFF7AEFC002404E06946085DFFF743
:100BC000A8FC641CB442F8DBFFF76AFFF8BD000024
:100BD0002564000070B505460E46002403E0285D3C
:100BE000FFF797FC641CB442F9DB70BD10B500BF81
:100BF000FFF7BEFDFFF78AFE0446312C05D0322CEC
:100C000003D0332C01D0342CF2D1204600F037F839
:100C1000FFF746FF012C03D10C48FFF707FD14E056
:100C2000322C03D10A48FFF701FD0EE0332C03D12B
:100C30000848FFF7FBFC08E0042C03D10648FFF747
:100C4000F5FC02E00148FFF7F1FC10BDAD2A000001
:100C50005B55000009800000B7AA000010B52024F1
:100C600004E0FFF74FFFFFF751FE0446312C01D09F
:100C7000322CF6D1204600F002F8204610BD10B507
:100C80000446FFF701FF5320FFF743FC6520FFF701
:100C900040FC6C20FFF73DFC6520FFF73AFC632029
:100CA000FFF737FC7420FFF734FC6520FFF731FCB9
:100CB0006420FFF72EFC3A20FFF72BFC2046FFF7BD
:100CC00028FC10BDD40C000000F0FF1F60010000E4
:040CD000040100001B
:040000050000019165
:00000001FF
