:020000040000FA
:1000000060F1FF1F610100006D0100006F01000041
:1000100000000000000000000000000000000000E0
:10002000000000000000000000000000710100005E
:1000300000000000000000007301000075010000D6
:1000400077010000770100007701000077010000D0
:1000500077010000770100007701000077010000C0
:1000600077010000770100007701000077010000B0
:1000700077010000770100007701000077010000A0
:100080007701000077010000770100007701000090
:100090007701000077010000770100007701000080
:1000A0007701000077010000770100007701000070
:1000B0007701000077010000770100007701000060
:1000C00000F002F800F03DF80CA030C80838241801
:1000D0002D18A246671EAB4654465D46AC4201D180
:1000E00000F02FF87E460F3E0FCCB6460126334275
:1000F00000D0FB1AA246AB4633431847F80F000066
:10010000081000000023002400250026103A01D327
:1001100078C1FBD8520700D330C100D50B607047BF
:1001200010B5692902D100F077F810BD642902D119
:1001300000F072F810BD002010BD1FB51FBD10B536
:1001400010BD00F0C5FD1146FFF7F7FF00F0B2FE4D
:1001500000F04AF903B4FFF7F2FF03BC00F0D8FD4A
:1001600072B60948804762B608480047FEE7FEE7D6
:10017000FEE7FEE7FEE7064800470000054806499F
:10018000044A064B704700007D0E0000C1000000CD
:100190007701000060F0FF1F60F1FF1F60F0FF1F9C
:1001A0000FB41CB5074B06AA7B446946009005981E
:1001B00000F067FD0020694600F011F91CBC08BC86
:1001C00004B018473302000070B504468569006822
:1001D000C10601D5302600E02026C00707D070BD3B
:1001E00062683046A1689047206A401C20626D1EFC
:1001F000F6D570BD70B5044685690078C00707D193
:1002000070BD6268A16820209047206A401C20626F
:100210006D1EF6D570BD0000F7B500257529106874
:10022000009914A611D0C046C046002802DA404208
:1002300011A608E0009909688A0701D50FA602E017
:10024000490704D50EA6012501E0C046C046009F1F
:100250000024243704E000F027FD30313955641CB8
:100260000028F8D12B4632462146009800F0ACFC1D
:10027000FEBD0000000000002D0000002B0000006B
:1002800020000000F3B50446002081B02062204623
:10029000E168884700287AD0252802D06268A168E2
:1002A00071E0E16820460025884706460020E061AD
:1002B0000746A0612A2E0AD0304600F0E5FD00284E
:1002C00027D0B8000019303E0090866119E00298EE
:1002D000BA00121902C8916102902046E16888476D
:1002E000012F064617D1E06900281FDA2020854338
:1002F0001CE000980A218069484300998019303831
:1003000088612046E1688847064600F0BDFD002868
:10031000EFD1012F0AD02E2E08D12046E168884760
:100320000646202005437F1C022FC3DBA06900285E
:1003300003DA4042A06101200543E80701D0102004
:100340008543002E23D030464138192803D8012098
:10035000C00205432036204625603146029A1546E4
:10036000FFF7DEFE00280BD0012806D0ED1DE808BF
:10037000C000083002908AE709E02D1D029586E74B
:1003800062683046A1689047206A401C7EE7206A78
:10039000FEBD000030B5441C03E00178401C00297C
:1003A0000DD08107F9D10B4BDD0104C8D11A91435F
:1003B0002940FAD0001B0A0603D0C01E30BD001B26
:1003C00030BD0A0401D0801E30BD0902FCD0401EA1
:1003D00030BD0000010101017047704770470A6895
:1003E0001070521C0A60704710B50446C046C046E3
:1003F0002046FFF7AFFE10BD0048704700F0FF1F1A
:10040000FFFFFFFFFFFFFFFFFFFFFFFFFEFFFFFFFD
:100410000246C80FC00781434B0030B54B405B001C
:100420009B0D20D01923DB06C91801231B05994217
:1004300020DB0324A40704251346AB400BD3002B79
:1004400004D1EB0613409B00E34204D4012464076B
:10045000002312195941FF231B0599420BD2C900F1
:100460000143500F09E0CB0204D5014308030243C6
:1004700005D0054830BDFF21C905084330BD0846F9
:1004800007210905884330BD0000C07FF0B5F94D54
:100490000C091E092C402E402F468BB0A7437DD05F
:1004A000B543FCD0002E7AD0002CFCD00D465D4028
:1004B000ED0F2543AC1BFF25AD0464190894C5025C
:1004C000440DC9022143500DDC0204430120C00742
:1004D00001430443D2020191200C110C00958C467B
:1004E000010423468B430A9161460904E24D8A4385
:1004F0000991010A7D4449198039097805464D431F
:1005000001266D18F605751B6943C90C640B891C1F
:100510004C436418B5012C1B250C2E04B4434C43EA
:100520004D43210C691889090591009DE90701D007
:100530000121C90704912C4601996708CD072F4373
:100540004C08059DE10B4D432D0C2946664675432D
:1005500002950D4645432E46029D7D1BB4410095F4
:100560000D465D4301942C0C2F040D465543AE46B9
:100570002D0C3D43029503947546049C2D04641B89
:10058000049406D2029C039D641C002675410395C9
:10059000029401AC70CC009F7D1B01E03EE162E162
:1005A000B44109040095079101940599A408614399
:1005B000090C0C464443650BE7040C46664674433D
:1005C000A646640B3C43039502947446049DE404E0
:1005D0002C1B049406D2029C039D641C00267541CA
:1005E0000395029401AC70CC009F7D1BB441019433
:1005F0000C465C430095650FE7000C465443A64645
:10060000640F3C43039502947446049DE4002C1B44
:10061000049406D2029C039D641C00267541039538
:10062000029401AC70CC009F7D1BB441AE09AF06B3
:10063000049DC900AD092F43049DA406AD06049591
:10064000079D344369180791059DE10B4D432D0C1F
:1006500029466646754302950D4645432E46029D42
:100660007D1BB44100950D465D4301942C0C2F0475
:100670000D465543AE462D0C3D43029503947546F9
:10068000049C2D04641B049406D2029C039D641CEC
:10069000002675410395029401AC70CC009F7D1B30
:1006A000B44101948C050694079C890A6118009551
:1006B0000791019C0599A4086143090C0D46454327
:1006C000680BEF040D46644665436C0B3C43049F86
:1006D000ED047D1BAC4602D20025641C6841009EDF
:1006E000019D371B85410846584301950C46460F2E
:1006F000C5005443600F28436546E4002C1B02D21A
:100700000025401C6E41019D3F1AB5412846BD0998
:10071000800628438446A009BF064E020699A40617
:1007200076180743079D002068410A9907901943EE
:100730000020099B00906046FF1913434041E20FDF
:1007400064003A43A4460446D71A8C41A04203D918
:100750000120009020463A46C70F94184041624657
:10076000D20F2243644664000494009CBE46640099
:10077000D71AA446044602978C417746002F01D130
:10078000A04204D96046401C8446029A2046C40F09
:10079000A64694184041049A0546D20F2243644667
:1007A0006400D31A8D417146002901D1A84202D9B3
:1007B00028461A46641C10430122002800D0164324
:1007C00061020020079B891904465C410223002C2A
:1007D00002DB491813466441089DCE0A2D145D19A9
:1007E0004B056705E10A2C050D1908993E43C90719
:1007F0006940002B08D0934006D30022761C51415B
:10080000002B01D1760876001C4A002D43DB1542EF
:1008100041D0AA433FD030460BB0F0BD06180D467C
:100820004D41174C7642AC411AD395181C465C4199
:10083000134A6D42A24113D3012252054C00D44207
:100840000AD15C00D4420BD04B4002D59202114336
:10085000E2E749004908DFE75940C90FC90718E036
:1008600000200849D8E7054801420DD10342F7D0DE
:10087000F2E700000000FF077C0B00000000F07FA3
:100880000000E0FF0000F87F114859400143C0120A
:1008900041400020C0E70123089A9B069A4205DCEC
:1008A000032252078918C90FC907B5E70522520765
:1008B0008918074A1143D2125140ADE770B5154669
:1008C0001C4602460B4628462146FFF7DFFD70BD59
:1008D000FFFFFF7F1F22030C02D10F22000402D072
:1008E000030E03D004E00020014670470002083ADE
:1008F000030F01D10001121F830F01D18000921E4E
:10090000002801DB4000521E120551184205C0129A
:10091000411810467047C10FC90700D0404201225C
:1009200092071143D6E701218907D3E7F0B58B4C35
:100930000F09254689B0BD437BD01D092646AE432D
:10094000FAD00E465E402740F60F3E43254071D058
:1009500024012142FBD0FF24AD19A4042D1B0395D3
:1009600001252D05DB02DB0AC9022B43C90A2943F5
:100970001E010901040F130F050121431701880B04
:10098000820391432D098C46A90B1E438A0395438C
:10099000B30B9A0396433F09BA0B9403A7430296FD
:1009A0002E467E430497B6464E19D7190C4601963B
:1009B000544305977E43371B7646BF1B3601B64628
:1009C000BE0B361900967646BC043719009C01D33D
:1009D000641C00946400002F01D001263443029E61
:1009E000049F754366467E430496760034196E0074
:1009F00034190094029C019E1C196643751BAE4677
:100A0000069465464519059C05956C435943754602
:100A10000891691A0191049E01465143A41B049157
:100A2000611A009C0791E10605D06109012211437A
:100A300002E072E06EE06109089D00272C0A2D0695
:100A40006918049D7C412A0A2D066918019D62419E
:100A5000AC0DAD026D185441079A910D92025519D3
:100A60006141029A644658435443069B059A5A438F
:100A7000121A131B9A0E9B015B187A41010B000599
:100A8000C3185141220A200644195A419A4200D201
:100A9000491C01204002814203D315230226F6435C
:100AA00002E014230326F6432020C51AA940174666
:100AB000AF40DA400A4320460399D840091473181E
:100AC00019055118039A3843D2075140AC4009D058
:100AD0000122944006D30022401C5141002C01D138
:100AE000400840001E4A934212D301220398920606
:100AF000904207DB0520400709181A480143C0123D
:100B0000414004E0032040070818C10FC907002036
:100B100009B0F0BD0020F107FAE705180C464C417A
:100B200011486D42A04115D394181A465A410E48F7
:100B3000644290410ED301204A004005824209D30D
:100B40005A00824206D35940C90F084AC9070020FB
:100B50001143DDE700200649DAE700000000FF0747
:100B6000FE070000FFFFFF7F0000E0FF0000F07FB6
:100B70000000F87F0121C9050123411842001B062E
:100B8000D3185B0E0AD0C1100722D206891840077D
:100B90005242D14201D5520089187047090208D546
:100BA0000146002A03D0C10FC90700207047104634
:100BB0007047420202D00020024970470721090510
:100BC0000143F4E70000F87FFFB504460D4681B00D
:100BD000243000902168880604D51022E0699143F2
:100BE000216000E00120A84201DD471B00E0002752
:100BF0000498A1697A191018081AA0612078C00613
:100C000002D42046FFF7E0FA002608E00398626865
:100C1000A168805D9047206A401C761C2062049881
:100C20008642F3DB2078C0060AD52046FFF7CCFACF
:100C300006E06268A16830209047206A401C20626C
:100C400038467F1E0028F4DC07E000986268A1683F
:100C5000405D9047206A401C206228466D1E002897
:100C6000F3DC2046FFF7C6FA2078000602D5022002
:100C700005B0F0BD0120FBE701694A1C026108785C
:100C8000704700B58FB0029100210591054901938D
:100C900079440391114604906846FFF7F3FA0FB0C8
:100CA00000BD0000E5FFFFFF01468008081A0209A9
:100CB0001018020A1018020C1018C008820012182E
:100CC0005200891A01E0401C0A390A29FBD27047F8
:100CD0007546FFF791FBAE46050069465346C008CE
:100CE000C000854618B020B5FFF748FA60BC002761
:100CF0004908B6460026C0C5C0C5C0C5C0C5C0C5E8
:100D0000C0C5C0C5C0C5403D49008D467047000004
:100D100001491820ABBEFEE7260002007047000024
:100D20000F48806B0121490308430D498863002067
:100D30000C4908610A48C06B490508430849C86363
:100D40000948006A40218843074908620846406A0A
:100D500007210843044948625C208860704700000E
:100D60000080044040D0044000B0034010B5044669
:100D7000F02121400846002100F05EF82107080E0E
:100D8000002100F059F8042C03DA042000F084F864
:100D900002E0012000F080F810BD10B50446F021FB
:100DA00021400846012100F047F82107080E0121E3
:100DB00000F042F8012000F06FF810BD00B51B48AC
:100DC000806B012109030843184988638815184975
:100DD00008608860C860086148618861C86115481A
:100DE0004069FD210843134948611E2000F054F872
:100DF0000A2000F051F8012000F04EF8012000F028
:100E00004BF80021202000F017F8012000F044F8F2
:100E10002820FFF7ABFF0620FFF7A8FF0120FFF710
:100E2000A5FF0F20FFF7A2FF00BD000000800440D7
:100E300000C00440C0F00F4030B504460D46F0201D
:100E400004402D072D0F204628430B4908602046FB
:100E500028430821084308490860002000F01CF8D6
:100E600005480460002004490860084640680221E3
:100E700008430149486030BDC0F00F4000200149DF
:100E8000086070470081044030380A2801D20120F0
:100E90007047002070470000002106E0002200E0BB
:100EA000521C034B9A42FBDB491C8142F6DB704724
:100EB000581B00001FB50027FFF732FFFFF77EFF2A
:100EC00024E000201249086000BF1148006880211A
:100ED00008400028F9D00E4807693846FFF71BFD87
:100EE000054600220B4BFFF721FD00220A4B019122
:100EF0000090FFF7CBFA03910290FFF789FA0446BE
:100F0000384600F00BF8204600F05AF8D9E7000008
:100F100000B0034000A074400000F040F8B5054662
:100F20002A4626A16846FFF73BF96846FFF732FAE2
:100F300006460120FFF71AFFFF20F530FFF7ACFF50
:100F40008020FFF713FF5420FFF727FF6520FFF7EE
:100F500024FF6D20FFF721FF7020FFF71EFF6520A3
:100F6000FFF71BFF7220FFF718FF6120FFF715FF47
:100F70007420FFF712FF7520FFF70FFF7220FFF7B5
:100F80000CFF6520FFF709FF3A20FFF706FFC0209E
:100F9000FFF7ECFE2020FFF700FF002404E0694685
:100FA000085DFFF7FAFE641CB442F8DB7D20C00048
:100FB000FFF772FF0120FFF7D9FEF8BD256400009E
:100FC000F1B584B00498FFF7D5FD05462A460B46D7
:100FD00026A16846FFF7E4F86846FFF7DBF9074605
:100FE0000120FFF7C3FEFF20F530FFF755FF8020FB
:100FF000FFF7BCFE5420FFF7D0FE6520FFF7CDFEC3
:101000006D20FFF7CAFE7020FFF7C7FE6520FFF7CF
:10101000C4FE7220FFF7C1FE6120FFF7BEFE742000
:10102000FFF7BBFE7520FFF7B8FE7220FFF7B5FE95
:101030006520FFF7B2FE3A20FFF7AFFEC020FFF7B2
:1010400095FE2020FFF7A9FE002404E06946085D14
:10105000FFF7A3FE641CBC42F8DB7D20C000FFF755
:101060001BFF0120FFF782FE05B0F0BD25362E32B2
:101070006946000080807F7E7D7C7B7A79787776F8
:1010800076757473727171706F6E6E6D6C6C6B6A65
:101090006A69686867666665646463636261616003
:1010A000605F5F5E5E5D5D5C5C5B5B5A5A59595880
:1010B00058575756565555555454535352525251EA
:1010C000515050504F4F4F4E4E4D4D4D4C4C4C4B40
:1010D0004B4B4A4A4A494949484848474747474687
:1010E00046464545454444444443434343424242C3
:1010F000424141410411000000F0FF1F6001000067
:0411000004010000E6
:040000050000016195
:00000001FF
