:020000040000FA
:1000000060F1FF1F49010000550100005701000089
:1000100000000000000000000000000000000000E0
:100020000000000000000000000000005901000076
:1000300000000000000000005B0100005D01000006
:100040005F0100005F0100005F0100005F01000030
:100050005F0100005F0100005F0100005F01000020
:100060005F0100005F0100005F0100005F01000010
:100070005F0100005F0100005F0100005F01000000
:100080005F0100005F0100005F0100005F010000F0
:100090005F0100005F0100005F0100005F010000E0
:1000A0005F0100005F0100005F0100005F010000D0
:1000B0005F0100005F0100005F0100005F010000C0
:1000C00000F002F800F030F80CA030C8083824180E
:1000D0002D18A246671EAB4654465D46AC4201D180
:1000E00000F022F87E460F3E0FCCB6460126334282
:1000F00000D0FB1AA246AB4633431847A4020000C7
:10010000B40200000023002400250026103A01D389
:1001100078C1FBD8520700D330C100D50B607047BF
:100120001FB51FBD10B510BD00F031F81146FFF727
:10013000F7FF00F0F5F800F049F803B4FFF7F2FF1D
:1001400003BC00F04FF8000072B60948804762B661
:1001500008480047FEE7FEE7FEE7FEE7FEE7064841
:100160000047000005480649044A064B7047000056
:10017000F9020000C10000005F01000060F0FF1FF5
:1001800060F1FF1F60F0FF1F7047704770477546B2
:1001900000F024F8AE46050069465346C008C0008A
:1001A000854618B020B5FFF7DDFF60BC0027490881
:1001B000B6460026C0C5C0C5C0C5C0C5C0C5C0C5FF
:1001C000C0C5C0C5403D49008D46704710B50446C6
:1001D000C046C0462046FFF7B0FF10BD004870473C
:1001E00000F0FF1F01491820ABBEFEE72600020009
:1001F000704710B50446F02121400846002100F068
:100200005FF82107080E002100F05AF8042C03DAE9
:10021000042000F077F802E0012000F073F810BD30
:1002200010B50446F02121400846012100F048F8AD
:100230002107080E012100F043F8012000F062F8C8
:1002400010BD000000B51B48806B01210903084365
:1002500018498863881518490860486088600861F3
:1002600048618861C86115484069F721084313490E
:1002700048611E2000F046F80A2000F043F80120F3
:1002800000F040F8012000F03DF80021202000F0AF
:1002900017F8012000F036F82820FFF7AAFF062003
:1002A000FFF7A7FF0120FFF7A4FF0F20FFF7A1FF33
:1002B00000BD00000080044000C00440C0F00F40BA
:1002C00030B504460D46F02004402D072D0F204682
:1002D000284308490860204628430421084305496B
:1002E0000860002000F00EF8024804600020014978
:1002F000086030BDC0F00F40002001490860704721
:1003000000810440002106E0002200E0521C034B63
:100310009A42FBDB491C8142F6DB7047581B000008
:10032000FFF790FF00BF0120FFF763FFFF20F530CC
:10033000FFF7E8FF8020FFF75CFF4820FFF770FF22
:100340006520FFF76DFF6C20FFF76AFF6C20FFF759
:1003500067FF6F20FFF764FF2020FFF761FF572042
:10036000FFF75EFF6F20FFF75BFF7220FFF758FF7C
:100370006C20FFF755FF6420FFF752FF2120FFF7A5
:100380004FFFC020FFF735FF3B20FFF749FF442018
:10039000FFF746FF7D20C000FFF7B4FFC3E7000072
:1003A0001004000000F0FF1F6001000004010000C5
:1003B000000000000000000000000000000000003D
:1003C000000000000000000000000000000000002D
:1003D000000000000000000000000000000000001D
:1003E000000000000000000000000000000000000D
:1003F00000000000000000000000000000000000FD
:10040000FFFFFFFFFFFFFFFFFFFFFFFFFEFFFFFFFD
:0400000500000149AD
:00000001FF
