:020000040000FA
:1000000060F1FF1F49010000550100005701000089
:1000100000000000000000000000000000000000E0
:100020000000000000000000000000005901000076
:1000300000000000000000005B0100005D01000006
:100040005F0100005F0100005F0100005F01000030
:100050005F0100005F0100005F0100005F01000020
:100060005F0100005F0100005F0100005F01000010
:100070005F0100005F0100005F0100005F01000000
:100080005F0100005F0100005F0100005F010000F0
:100090005F0100005F0100005F0100005F010000E0
:1000A0005F0100005F0100005F0100005F010000D0
:1000B0005F0100005F0100005F0100005F010000C0
:1000C00000F002F800F030F80CA030C8083824180E
:1000D0002D18A246671EAB4654465D46AC4201D180
:1000E00000F022F87E460F3E0FCCB6460126334282
:1000F00000D0FB1AA246AB463343184780020000EB
:10010000900200000023002400250026103A01D3AD
:1001100078C1FBD8520700D330C100D50B607047BF
:100120001FB51FBD10B510BD00F031F81146FFF727
:10013000F7FF00F0EDF800F049F803B4FFF7F2FF25
:1001400003BC00F04FF8000072B60948804762B661
:1001500008480047FEE7FEE7FEE7FEE7FEE7064841
:100160000047000005480649044A064B7047000056
:10017000E9020000C10000005F01000060F0FF1F05
:1001800060F1FF1F60F0FF1F7047704770477546B2
:1001900000F024F8AE46050069465346C008C0008A
:1001A000854618B020B5FFF7DDFF60BC0027490881
:1001B000B6460026C0C5C0C5C0C5C0C5C0C5C0C5FF
:1001C000C0C5C0C5403D49008D46704710B50446C6
:1001D000C046C0462046FFF7B0FF10BD004870473C
:1001E00000F0FF1F01491820ABBEFEE72600020009
:1001F0007047000010B5044614200B4988600A4877
:10020000C030046020204860002000F073F82020F7
:1002100005498860042C03DA042000F06BF802E042
:10022000012000F067F810BD00F00F4010B5044643
:10023000042009494860102088600748C0300460E5
:1002400020204860002000F055F8202002498860F6
:10025000012000F04FF810BD00F00F4000B51E481F
:10026000806B0121090308431B49886388151B49DA
:10027000086048608860C860086148618861C8613A
:10028000FF20174948611448806B491508431249FB
:100290008863881513498860086148611048C03830
:1002A0004069342108430E49C03948611E2000F0DE
:1002B00021F80A2000F01EF8012000F01BF8382079
:1002C000FFF798FF0620FFF795FF0120FFF792FF49
:1002D0000F20FFF78FFF00BD0080044000C00440E6
:1002E000C0F00F40009004400020014908607047B2
:1002F00000810440002106E0002200E0521C034B74
:100300009A42FBDB491C8142F6DB7047581B000018
:10031000FFF7A4FF0F20FFF76DFF00BF0120FFF7DD
:1003200069FFFF20F530FFF7E5FF8020FFF762FF50
:100330004820FFF77BFF6520FFF778FF6C20FFF771
:1003400075FF6C20FFF772FF6F20FFF76FFFC02073
:10035000FFF750FF5720FFF769FF6F20FFF766FF99
:100360007220FFF763FF6C20FFF760FF6420FFF748
:100370005DFFFF20F530FFF7BDFFCFE71004000061
:1003800000F0FF1F600100000401000000000000F9
:10039000000000000000000000000000000000005D
:1003A000000000000000000000000000000000004D
:1003B000000000000000000000000000000000003D
:1003C000000000000000000000000000000000002D
:1003D000000000000000000000000000000000001D
:1003E000000000000000000000000000000000000D
:1003F00000000000000000000000000000000000FD
:10040000FFFFFFFFFFFFFFFFFFFFFFFFFEFFFFFFFD
:0400000500000149AD
:00000001FF
