:020000040000FA
:1000000060F1FF1F59010000650100006701000059
:1000100000000000000000000000000000000000E0
:100020000000000000000000000000006901000066
:1000300000000000000000006B0100006D010000E6
:100040006F0100006F0100006F0100006F010000F0
:100050006F0100006F0100006F0100006F010000E0
:100060006F0100006F0100006F0100006F010000D0
:100070006F0100006F0100006F0100006F010000C0
:100080006F0100006F0100006F0100006F010000B0
:100090006F0100006F0100006F0100006F010000A0
:1000A0006F0100006F0100006F0100006F01000090
:1000B0006F0100006F0100006F0100006F01000080
:1000C00000F002F800F038F80CA030C80838241806
:1000D0002D18A246671EAB4654465D46AC4201D180
:1000E00000F02AF87E460F3E0FCCB646012633427A
:1000F00000D0FB1AA246AB4633431847A8050000C0
:10010000B80500000023002400250026103A01D382
:1001100078C1FBD8520700D330C100D50B607047BF
:1001200010B5642902D100F081F810BD002010BD87
:100130001FB51FBD10B510BD00F06AF91146FFF7DD
:10014000F7FF00F045FA00F082F903B4FFF7F2FF81
:1001500003BC00F085F9000072B60948804762B61A
:1001600008480047FEE7FEE7FEE7FEE7FEE7064831
:100170000047000005480649044A064B7047000046
:1001800081050000C10000006F01000060F0FF1F4A
:1001900060F1FF1F60F0FF1F0FB41CB5074B06AAEC
:1001A0007B4469460090059800F0F9F80020694604
:1001B00000F008F91CBC08BC04B01847210200007C
:1001C000F8B50E460446002020622046E1688847C4
:1001D000002829D0252802D06268A16820E0E168C3
:1001E00020460027884705001ED028464138192898
:1001F00002D80127FF0220353246204627602946D3
:10020000FFF78EFF002808D0012804D0F61DF6085D
:10021000F6000836D9E7361DD7E762682846A16898
:100220009047206A401CCFE7206AF8BDF7B500254B
:1002300075291068009914A611D0C046C046002840
:1002400002DA404211A608E0009909688A0701D540
:100250000FA602E0490704D50EA6012501E0C0461D
:10026000C046009F0024243704E000F0B0F830318D
:100270003955641C0028F8D12B4632462146009897
:1002800000F02FF8FEBD0000000000002D0000006F
:100290002B0000002000000030B5441C03E0017872
:1002A000401C00290DD08107F9D10B4BDD0104C89A
:1002B000D11A91432940FAD0001B0A0603D0C01E70
:1002C00030BD001B30BD0A0401D0801E30BD0902C4
:1002D000FCD0401E30BD0000010101017047704795
:1002E0007047FFB504460D4681B024300090216868
:1002F000880604D51022E0699143216000E00120C6
:10030000A84201DD471B00E000270498A1697A1983
:100310001018081AA0612078C00602D42046C046F2
:10032000C046002608E003986268A168805D904797
:10033000206A401C761C206204988642F3DB2078F9
:10034000C0060AD52046C046C04606E06268A168DD
:1003500030209047206A401C206238467F1E0028CB
:10036000F4DC07E000986268A168405D9047206A6D
:10037000401C206228466D1E0028F3DC2046C04643
:10038000C0462078000602D5022005B0F0BD01204D
:10039000FBE7000001694A1C02610878704700B55C
:1003A0008FB0029100210591054901937944039191
:1003B000114604906846FFF703FF0FB000BD000030
:1003C000E5FFFFFF0A681070521C0A607047014683
:1003D0008008081A02091018020A1018020C1018D6
:1003E000C008820012185200891A01E0401C0A3924
:1003F0000A29FBD2704700000048704700F0FF1F39
:10040000FFFFFFFFFFFFFFFFFFFFFFFFFEFFFFFFFD
:100410007546FFF7F1FFAE46050069465346C00832
:10042000C000854618B020B5FFF7A4FE60BC0027C9
:100430004908B6460026C0C5C0C5C0C5C0C5C0C5B0
:10044000C0C5C0C5C0C5403D49008D46704710B508
:100450000446C046C0462046FFF777FE10BD0000A8
:1004600001491820ABBEFEE726000200704710B518
:100470000446F02121400846002100F05FF82107E2
:10048000080E002100F05AF8042C03DA042000F0D2
:1004900091F802E0012000F08DF810BD10B504467F
:1004A000F02121400846012100F048F82107080EFC
:1004B000012100F043F8012000F07CF810BD00009D
:1004C00000B51B48806B0121090308431849886364
:1004D0008815184908608860C860086148618861AB
:1004E000C86115484069FD210843134948611E2031
:1004F00000F060F80A2000F05DF8012000F05AF8E2
:10050000012000F057F80021202000F017F801200A
:1005100000F050F82820FFF7AAFF0620FFF7A7FFFA
:100520000120FFF7A4FF0F20FFF7A1FF00BD00008F
:100530000080044000C00440C0F00F4030B50446C5
:100540000D46F02004402D072D0F204628430B496F
:100550000860204628430821084308490860002015
:1005600000F028F8054804600020044908600846A7
:100570004068022108430149486030BDC0F00F4087
:100580000020014908607047008104400748C06BA3
:100590000121C90608430549C8630548006A40218E
:1005A00088430349086254208860704700800440F3
:1005B00000B00340002106E0002200E0521C034B83
:1005C0009A42FBDB491C8142F6DB7047581B000056
:1005D000FFF776FFFFF7DAFF0FE01A200749086000
:1005E00000BF06480068802108400028F9D0034871
:1005F000006904B2204600F003F8EEE700B00340C3
:10060000F8B505462A4626A16846FFF7C5FD6846A7
:10061000FFF742FE06460120FFF729FFFF20F530D5
:10062000FFF7C8FF8020FFF722FF5420FFF736FFB7
:100630006520FFF733FF6D20FFF730FF7020FFF7D5
:100640002DFF6520FFF72AFF7220FFF727FF6120AB
:10065000FFF724FF7420FFF721FF7520FFF71EFF2F
:100660007220FFF71BFF6520FFF718FF3A20FFF706
:1006700015FFC020FFF7FBFE2020FFF70FFF00242F
:1006800004E06946085DFFF709FF641CB442F8DB2B
:100690007D20C000FFF78EFF0120FFF7E8FEF8BDC8
:1006A00025640000B406000000F0FF1F6001000098
:0406B0000401000041
:04000005000001599D
:00000001FF
