:020000040000FA
:1000000060F1FF1F69010000750100007701000029
:1000100000000000000000000000000000000000E0
:100020000000000000000000000000007901000056
:1000300000000000000000007B0100007D010000C6
:100040007F0100007F0100007F0100007F010000B0
:100050007F0100007F0100007F0100007F010000A0
:100060007F0100007F0100007F0100007F01000090
:100070007F0100007F0100007F0100007F01000080
:100080007F0100007F0100007F0100007F01000070
:100090007F0100007F0100007F0100007F01000060
:1000A0007F0100007F0100007F0100007F01000050
:1000B0007F0100007F010000790700007F01000040
:1000C00000F002F800F041F80CA030C808382418FD
:1000D0002D18A246671EAB4654465D46AC4201D180
:1000E00000F033F87E460F3E0FCCB6460126334271
:1000F00000D0FB1AA246AB4633431847F80C000069
:10010000080D00000023002400250026103A01D32A
:1001100078C1FBD8520700D330C100D50B607047BF
:1001200010B5642902D100F089F810BD002010BD7F
:100130001FB500F039FA04000020002100F044FE51
:10014000401C60601FBD10B510BD00F00EFA1146D6
:10015000FFF7EEFF00F0DAFC00F039FA03B4FFF726
:10016000F2FF03BC00F080FA72B60948804762B61D
:1001700008480047FEE7FEE7FEE7FEE7FEE7064821
:100180000047000005480649044A064B7047000036
:10019000A5070000C10000007F01000060F0FF1F04
:1001A00060F1FF1F60F0FF1F0FB41CB5074B06AADC
:1001B0007B4469460090059800F00BF900206946E1
:1001C00000F026F91CBC08BC04B018475D02000012
:1001D000F8B50E460446002020622046E1688847B4
:1001E000002829D0252802D06268A16820E0E168B3
:1001F00020460027884705001ED028464138192888
:1002000002D80127FF0220353246204627602946C2
:10021000FFF786FF002808D0012804D0F61DF60855
:10022000F6000836D9E7361DD7E762682846A16888
:100230009047206A401CCFE7206AF8BDF7B500253B
:1002400075291068009914A611D0C046C046002830
:1002500002DA404211A608E0009909688A0701D530
:100260000FA602E0490704D50EA6012501E0C0460D
:10027000C046009F0024243704E000F007F9303125
:100280003955641C0028F8D12B4632462146009887
:1002900000F042F8FEBD0000000000002D0000004C
:1002A0002B0000002000000070B5064600F030F87A
:1002B0000468054630460A22002100F0AFF82C60A1
:1002C00070BD000030B5441C03E00178401C0029DB
:1002D0000DD08107F9D10B4BDD0104C8D11A914330
:1002E0002940FAD0001B0A0603D0C01E30BD001BF7
:1002F00030BD0A0401D0801E30BD0902FCD0401E72
:1003000030BD0000010101017047704770470000D7
:100310000048704700F0FF1FFFB504460D4681B04E
:10032000243000902168880604D51022E0699143AA
:10033000216000E00120A84201DD471B00E000270A
:100340000498A1697A191018081AA0612078C006CB
:1003500002D42046C046C046002608E003986268E2
:10036000A168805D9047206A401C761C206204983A
:100370008642F3DB2078C0060AD52046C046C04638
:1003800006E06268A16830209047206A401C206225
:1003900038467F1E0028F4DC07E000986268A168F8
:1003A000405D9047206A401C206228466D1E002850
:1003B000F3DC2046C046C0462078000602D5022065
:1003C00005B0F0BD0120FBE701694A1C0261087815
:1003D000704700B58FB00291002105910549019346
:1003E00079440391114604906846FFF7F1FE0FB07F
:1003F00000BD0000E5FFFFFF0048704700F0FF1F51
:10040000FFFFFFFFFFFFFFFFFFFFFFFFFEFFFFFFFD
:100410000A681070521C0A6070470000F7B50F465A
:100420000026009C2578641C002D05D000F042F8C1
:100430000068405DC007F5D12B2D02D02D2D18D0BE
:10044000641E3946029A204600F03CF8002F04D082
:100450003968A14201D1009939607105022400294F
:100460000BDA4042002803DDFFF752FF0460A007CB
:10047000FEBD012080020643E3E70028F8DAFFF71B
:1004800047FF04600048FEBDFFFFFF7F0146800874
:10049000081A02091018020A1018020C1018C008D5
:1004A000820012185200891A01E0401C0A390A29F8
:1004B000FBD2704710B500F077F8001D10BD00BFEB
:1004C00009090000F7B5154682B00027029C207884
:1004D000641C0197302802D0002D15D015E020783B
:1004E0000127641C782804D0582802D0002D09D098
:1004F0000BE0002D01D0102D07D12078002710250A
:10050000641C02E0082500E00A250026009610E0A1
:10051000009901276943081829467143020C80B2EB
:1005200000908E183804864201D301200190207873
:10053000641C294600F03CF80028E9DA03980028FA
:1005400005D0002F01D0641E00E0029C04600198D9
:10055000002806D0FFF7DCFE02210160C81E05B0AE
:10056000F0BD009930040843F9E77546FFF744FFF2
:10057000AE46050069465346C008C000854618B01F
:1005800020B5FFF7FFFD60BC00274908B6460026EE
:10059000C0C5C0C5C0C5C0C5C0C5C0C5C0C5C0C533
:1005A000403D49008D4670470048704720F0FF1FCE
:1005B0003A2800D23038202302469A43412A01D3F8
:1005C00010463738884201D30020C043704710B529
:1005D0000446C046C0462046FFF7C0FD10BD0000DF
:1005E000024670B50A4392072AD11E4DEE0104C897
:1005F00008C9541B9443344017D0D0B2D9B2401A22
:100600002106014310D190B299B2401A210401434E
:100610000AD110021902000A090A401A21020143F4
:1006200002D1100E190E401A70BD9A42DFD010BAD6
:1006300019BA884201D9012070BD0020C04370BDA5
:1006400002780B78401C491C002A09D09A4207D135
:1006500002780B78401C491C002A01D09A42EFD046
:10066000D01A70BD0101010101491820ABBEFEE79F
:1006700026000200704710B50446F02121400846CC
:10068000002100F057F82107080E002100F052F871
:10069000042C03DA042000F0B7F802E0012000F097
:1006A000B3F810BD10B50446F021214008460121E1
:1006B00000F040F82107080E012100F03BF801206E
:1006C00000F0A2F810BD000000B5FF20013017496E
:1006D00008608860C860086148618861C861144822
:1006E0004069FD210843124948611E2000F08CF842
:1006F0000A2000F089F8012000F086F8012000F0BF
:1007000083F80021202000F015F8012000F07CF88B
:100710002820FFF7B0FF0620FFF7ADFF0120FFF70D
:10072000AAFF0F20FFF7A7FF00BD000000C0044094
:10073000C0F00F4030B504460D46F02004402D07B0
:100740002D0F204628430B490860204628430821E6
:10075000084308490860002000F056F80548046086
:100760000020044908600846406802210843014906
:10077000486030BDC0F00F4010B500BF00F07BFAFC
:10078000C82000F041F800F0DDF804462A2CF5D12D
:100790000120FFF770FF06200149086210BD00002C
:1007A00080900440002001490860704700810440A7
:1007B00070B504460D462046FFF784FD0646A55554
:1007C0000021701C215470BD0648806B0121090373
:1007D0000843044988630846806B091508430149AA
:1007E000886370470080044070B50546002405E02A
:1007F000204600F09BFA00F015F8641CAC42F7DBD1
:100800000120FFF738FF70BD002106E0002200E064
:10081000521C034B9A42FBDB491C8142F6DB7047BA
:10082000581B0000002007E000BF0549096880222E
:1008300011400029F9D0401C02498842F4DB70477E
:100840000090034040420F00002107E0002200E03A
:10085000521C7D239B019A42FADB491C8142F5DB45
:100860007047F8B50020009000BF00F022FAC820C1
:10087000FFF7CAFF00F066F80446002C15D0412CA3
:1008800013D021466846FFF793FF6846FFF71AFD2D
:10089000401E69460D5C284600F0C2F9FF20F53085
:1008A000FFF7B2FF0120FFF7E6FE412CDDD16846DD
:1008B000FFF7FAFC06463046F8BD00001E48806B84
:1008C0000121490208431C4988631C484068FF21F4
:1008D0000431084319494860194840690221884396
:1008E00017494861154840680F2109048843134996
:1008F0004860084640680521490408430F4948609C
:1009000008468068FF21043108430C4988600C4880
:100910004069042188430A494861084880680F21DA
:100920000904884305498860084680680521490410
:1009300008430249886070470080044000900440EA
:1009400000F00F4038B54EA0006800904D48406957
:100950000F2108434B4948610F2088600220FFF7B0
:1009600073FF48480069F0210840054600204549CA
:100970004861F02D00D138BD002418E00020414925
:100980004861084640696946095D08433D49486138
:100990006846005D88600220FFF756FF394800690D
:1009A000F02108400546F02D00D002E0641C042C24
:1009B000E4DB00BF002033494861324840304068E2
:1009C000022108432F4940314860042C01D1002006
:1009D000D1E7702D12D1002C06D0012C06D0022CAC
:1009E00006D0032C08D105E04120C4E74220C2E72D
:1009F0004320C0E74420BEE70020BCE7B02D12D161
:100A0000002C06D0012C06D0022C06D0032C08D1D5
:100A100005E03320AFE73620ADE73920ABE72320F0
:100A2000A9E70020A7E7D02D12D1002C06D0012C79
:100A300006D0022C06D0032C08D105E032209AE71C
:100A4000352098E7382096E7302094E7002092E799
:100A5000E02D12D1002C06D0012C06D0022C06D09D
:100A6000032C08D105E0312085E7342083E73720C7
:100A700081E72A207FE700207DE700207BE7000058
:100A80000102040880F00F400A48806B0121C9026E
:100A9000084308498863FF2004300749086048601C
:100AA0008860C860086148618861C8610F20034997
:100AB000486170470080044000B00440C0F00F401F
:100AC000FF2001300E4948600E498860C86003204D
:100AD00080040D49486102200B49803148610A4871
:100AE000406803218904084307494860064880306C
:100AF0004068022108430449803148607047000083
:100B000000C0044040A0044040F00F40002472B6F2
:100B1000FFF75AFEFFF7D4FFFFF7B6FFFFF7D4FD4C
:100B2000FFF7CCFE104800680121890708430E49F1
:100B3000086062B616E000F01BF80C48FFF764FE90
:100B40000120FFF798FDFFF78CFE0446FF20F530EB
:100B5000FFF75AFE0120FFF78EFD00F039F820461E
:100B6000FFF742FEE7E7000000E100E0C4090000F3
:100B700000B50120FFF77FFDFF20F530FFF744FEB1
:100B80008020FFF778FD4820FFF78CFD6520FFF7F8
:100B900089FD6C20FFF786FD6C20FFF783FD6F2039
:100BA000FFF780FD2020FFF77DFD5420FFF77AFD41
:100BB0006820FFF777FD6520FFF774FD7220FFF7CF
:100BC00071FD6520FFF76EFD2120FFF76BFD00BD75
:100BD0001048C06B0121490608430E49C863084606
:100BE00040680121090608430A49486000200A4973
:100BF000086007200860094888600846006880216E
:100C0000084305490860084600680821084302496E
:100C1000086070470080044000900340FFFF000020
:100C200010B504460120FFF726FDFF20F530FFF741
:100C3000EBFD8020FFF71FFD5320FFF733FD6520FC
:100C4000FFF730FD6C20FFF72DFD6520FFF72AFD33
:100C50006320FFF727FD7420FFF724FD6520FFF7D1
:100C600021FD6420FFF71EFD3A20FFF71BFD204603
:100C7000FFF718FD10BD00B50120FFF7FCFCFF20B9
:100C8000F530FFF7C1FD8020FFF7F5FC5020FFF79E
:100C900009FD6120FFF706FD7520FFF703FD7320B6
:100CA000FFF700FD6520FFF7FDFC6420FFF7FAFC6D
:100CB00000BD00B50120FFF7DEFCFF20F530FFF797
:100CC000A3FD8020FFF7D7FC5320FFF7EBFC652046
:100CD000FFF7E8FC6C20FFF7E5FC6520FFF7E2FC7E
:100CE0006320FFF7DFFC7420FFF7DCFCC020FFF778
:100CF000C2FC6120FFF7D6FC2020FFF7D3FC6E205A
:100D0000FFF7D0FC7520FFF7CDFC6D20FFF7CAFC84
:100D10006220FFF7C7FC6520FFF7C4FC7220FFF7D5
:100D2000C1FC3A20FFF7BEFC00BD0000F8B5054647
:100D30002A4624A16846FFF737FA6846FFF7C2FA49
:100D400006460120FFF797FCFF20F530FFF75CFD1A
:100D50008020FFF790FC4320FFF7A4FC6F20FFF7F3
:100D6000A1FC7520FFF79EFC6E20FFF79BFC742012
:100D7000FFF798FC3A20FFF795FCC020FFF77BFCBB
:100D80002020FFF78FFC2020FFF78CFC2A20FFF7A4
:100D900089FC2A20FFF786FC2A20FFF783FC002429
:100DA00004E06946085DFFF77DFC641CB442F8DB93
:100DB0002A20FFF777FC2A20FFF774FC2A20FFF790
:100DC00071FCF8BD2564000010B500290AD0087830
:100DD000002807D005487844FFF702FC002801D01E
:100DE000002010BD0248784410BD00002E00000015
:100DF00026000000140F000000F0FF1F600100003B
:100E0000040100001001000043000000F8FFFFFF94
:100E1000004040404040404040404141414141400D
:100E200040404040404040404040404040404040C2
:100E30004005020202020202020202020202020251
:100E40000220202020202020202020020202020256
:100E500002029090909090901010101010101010AE
:100E600010101010101010101010101002020202BA
:100E700002028888888888880808080808080808FE
:100E800008080808080808080808080802020202FA
:100E90004000000000000000000000000000000012
:100EA0000000000000000000000000000000000042
:100EB0000000000000000000000000000000000032
:100EC0000000000000000000000000000000000022
:100ED0000000000000000000000000000000000012
:100EE0000000000000000000000000000000000002
:100EF00000000000000000000000000000000000F2
:100F000000000000000000000000000000000000E1
:040F100000000000DD
:04000005000001698D
:00000001FF
